{
  "_format": "hh-sol-artifact-1",
  "contractName": "Carbon_Foot_print",
  "sourceName": "contracts/carbon_footprint_risk_analysis.sol",
  "abi": [
    {
      "inputs": [],
      "stateMutability": "nonpayable",
      "type": "constructor"
    },
    {
      "inputs": [
        {
          "internalType": "address",
          "name": "spender",
          "type": "address"
        },
        {
          "internalType": "uint256",
          "name": "allowance",
          "type": "uint256"
        },
        {
          "internalType": "uint256",
          "name": "needed",
          "type": "uint256"
        }
      ],
      "name": "ERC20InsufficientAllowance",
      "type": "error"
    },
    {
      "inputs": [
        {
          "internalType": "address",
          "name": "sender",
          "type": "address"
        },
        {
          "internalType": "uint256",
          "name": "balance",
          "type": "uint256"
        },
        {
          "internalType": "uint256",
          "name": "needed",
          "type": "uint256"
        }
      ],
      "name": "ERC20InsufficientBalance",
      "type": "error"
    },
    {
      "inputs": [
        {
          "internalType": "address",
          "name": "approver",
          "type": "address"
        }
      ],
      "name": "ERC20InvalidApprover",
      "type": "error"
    },
    {
      "inputs": [
        {
          "internalType": "address",
          "name": "receiver",
          "type": "address"
        }
      ],
      "name": "ERC20InvalidReceiver",
      "type": "error"
    },
    {
      "inputs": [
        {
          "internalType": "address",
          "name": "sender",
          "type": "address"
        }
      ],
      "name": "ERC20InvalidSender",
      "type": "error"
    },
    {
      "inputs": [
        {
          "internalType": "address",
          "name": "spender",
          "type": "address"
        }
      ],
      "name": "ERC20InvalidSpender",
      "type": "error"
    },
    {
      "inputs": [
        {
          "internalType": "address",
          "name": "owner",
          "type": "address"
        }
      ],
      "name": "OwnableInvalidOwner",
      "type": "error"
    },
    {
      "inputs": [
        {
          "internalType": "address",
          "name": "account",
          "type": "address"
        }
      ],
      "name": "OwnableUnauthorizedAccount",
      "type": "error"
    },
    {
      "anonymous": false,
      "inputs": [
        {
          "indexed": true,
          "internalType": "address",
          "name": "owner",
          "type": "address"
        },
        {
          "indexed": true,
          "internalType": "address",
          "name": "spender",
          "type": "address"
        },
        {
          "indexed": false,
          "internalType": "uint256",
          "name": "value",
          "type": "uint256"
        }
      ],
      "name": "Approval",
      "type": "event"
    },
    {
      "anonymous": false,
      "inputs": [
        {
          "indexed": true,
          "internalType": "address",
          "name": "user",
          "type": "address"
        },
        {
          "indexed": false,
          "internalType": "string",
          "name": "analysisRequest",
          "type": "string"
        },
        {
          "indexed": false,
          "internalType": "string",
          "name": "analysisResult",
          "type": "string"
        },
        {
          "indexed": false,
          "internalType": "uint256",
          "name": "rewardToken",
          "type": "uint256"
        }
      ],
      "name": "DataAdded",
      "type": "event"
    },
    {
      "anonymous": false,
      "inputs": [
        {
          "indexed": true,
          "internalType": "address",
          "name": "previousOwner",
          "type": "address"
        },
        {
          "indexed": true,
          "internalType": "address",
          "name": "newOwner",
          "type": "address"
        }
      ],
      "name": "OwnershipTransferred",
      "type": "event"
    },
    {
      "anonymous": false,
      "inputs": [
        {
          "indexed": true,
          "internalType": "address",
          "name": "from",
          "type": "address"
        },
        {
          "indexed": true,
          "internalType": "address",
          "name": "to",
          "type": "address"
        },
        {
          "indexed": false,
          "internalType": "uint256",
          "name": "value",
          "type": "uint256"
        }
      ],
      "name": "Transfer",
      "type": "event"
    },
    {
      "inputs": [
        {
          "internalType": "string",
          "name": "analysisRequest",
          "type": "string"
        },
        {
          "internalType": "string",
          "name": "analysisResult",
          "type": "string"
        }
      ],
      "name": "addAnalyzedData",
      "outputs": [],
      "stateMutability": "nonpayable",
      "type": "function"
    },
    {
      "inputs": [
        {
          "internalType": "address",
          "name": "owner",
          "type": "address"
        },
        {
          "internalType": "address",
          "name": "spender",
          "type": "address"
        }
      ],
      "name": "allowance",
      "outputs": [
        {
          "internalType": "uint256",
          "name": "",
          "type": "uint256"
        }
      ],
      "stateMutability": "view",
      "type": "function"
    },
    {
      "inputs": [
        {
          "internalType": "address",
          "name": "",
          "type": "address"
        },
        {
          "internalType": "uint256",
          "name": "",
          "type": "uint256"
        }
      ],
      "name": "analyzedData",
      "outputs": [
        {
          "internalType": "string",
          "name": "analysisRequest",
          "type": "string"
        },
        {
          "internalType": "string",
          "name": "analysisResult",
          "type": "string"
        },
        {
          "internalType": "uint256",
          "name": "storedTimestamp",
          "type": "uint256"
        }
      ],
      "stateMutability": "view",
      "type": "function"
    },
    {
      "inputs": [
        {
          "internalType": "address",
          "name": "spender",
          "type": "address"
        },
        {
          "internalType": "uint256",
          "name": "value",
          "type": "uint256"
        }
      ],
      "name": "approve",
      "outputs": [
        {
          "internalType": "bool",
          "name": "",
          "type": "bool"
        }
      ],
      "stateMutability": "nonpayable",
      "type": "function"
    },
    {
      "inputs": [
        {
          "internalType": "address",
          "name": "account",
          "type": "address"
        }
      ],
      "name": "balanceOf",
      "outputs": [
        {
          "internalType": "uint256",
          "name": "",
          "type": "uint256"
        }
      ],
      "stateMutability": "view",
      "type": "function"
    },
    {
      "inputs": [],
      "name": "decimals",
      "outputs": [
        {
          "internalType": "uint8",
          "name": "",
          "type": "uint8"
        }
      ],
      "stateMutability": "view",
      "type": "function"
    },
    {
      "inputs": [],
      "name": "getAllAnalyzedData",
      "outputs": [
        {
          "components": [
            {
              "internalType": "string",
              "name": "analysisRequest",
              "type": "string"
            },
            {
              "internalType": "string",
              "name": "analysisResult",
              "type": "string"
            },
            {
              "internalType": "uint256",
              "name": "storedTimestamp",
              "type": "uint256"
            }
          ],
          "internalType": "struct Carbon_Foot_print.Data[]",
          "name": "",
          "type": "tuple[]"
        }
      ],
      "stateMutability": "view",
      "type": "function"
    },
    {
      "inputs": [
        {
          "internalType": "uint256",
          "name": "_id",
          "type": "uint256"
        }
      ],
      "name": "getOneAnalyzedData",
      "outputs": [
        {
          "components": [
            {
              "internalType": "string",
              "name": "analysisRequest",
              "type": "string"
            },
            {
              "internalType": "string",
              "name": "analysisResult",
              "type": "string"
            },
            {
              "internalType": "uint256",
              "name": "storedTimestamp",
              "type": "uint256"
            }
          ],
          "internalType": "struct Carbon_Foot_print.Data",
          "name": "",
          "type": "tuple"
        }
      ],
      "stateMutability": "view",
      "type": "function"
    },
    {
      "inputs": [
        {
          "internalType": "uint256",
          "name": "amount",
          "type": "uint256"
        },
        {
          "internalType": "uint256",
          "name": "decimal",
          "type": "uint256"
        }
      ],
      "name": "issueToken",
      "outputs": [],
      "stateMutability": "nonpayable",
      "type": "function"
    },
    {
      "inputs": [],
      "name": "name",
      "outputs": [
        {
          "internalType": "string",
          "name": "",
          "type": "string"
        }
      ],
      "stateMutability": "view",
      "type": "function"
    },
    {
      "inputs": [],
      "name": "own",
      "outputs": [
        {
          "internalType": "address payable",
          "name": "",
          "type": "address"
        }
      ],
      "stateMutability": "view",
      "type": "function"
    },
    {
      "inputs": [],
      "name": "owner",
      "outputs": [
        {
          "internalType": "address",
          "name": "",
          "type": "address"
        }
      ],
      "stateMutability": "view",
      "type": "function"
    },
    {
      "inputs": [],
      "name": "renounceOwnership",
      "outputs": [],
      "stateMutability": "nonpayable",
      "type": "function"
    },
    {
      "inputs": [],
      "name": "symbol",
      "outputs": [
        {
          "internalType": "string",
          "name": "",
          "type": "string"
        }
      ],
      "stateMutability": "view",
      "type": "function"
    },
    {
      "inputs": [],
      "name": "totalSupply",
      "outputs": [
        {
          "internalType": "uint256",
          "name": "",
          "type": "uint256"
        }
      ],
      "stateMutability": "view",
      "type": "function"
    },
    {
      "inputs": [
        {
          "internalType": "address",
          "name": "to",
          "type": "address"
        },
        {
          "internalType": "uint256",
          "name": "value",
          "type": "uint256"
        }
      ],
      "name": "transfer",
      "outputs": [
        {
          "internalType": "bool",
          "name": "",
          "type": "bool"
        }
      ],
      "stateMutability": "nonpayable",
      "type": "function"
    },
    {
      "inputs": [
        {
          "internalType": "address",
          "name": "from",
          "type": "address"
        },
        {
          "internalType": "address",
          "name": "to",
          "type": "address"
        },
        {
          "internalType": "uint256",
          "name": "value",
          "type": "uint256"
        }
      ],
      "name": "transferFrom",
      "outputs": [
        {
          "internalType": "bool",
          "name": "",
          "type": "bool"
        }
      ],
      "stateMutability": "nonpayable",
      "type": "function"
    },
    {
      "inputs": [
        {
          "internalType": "address",
          "name": "newOwner",
          "type": "address"
        }
      ],
      "name": "transferOwnership",
      "outputs": [],
      "stateMutability": "nonpayable",
      "type": "function"
    }
  ],
  "bytecode": "0x608060405234801562000010575f80fd5b50336040518060400160405280600f81526020017f436172626f6e20656d697373696f6e00000000000000000000000000000000008152506040518060400160405280600381526020017f434f32000000000000000000000000000000000000000000000000000000000081525081600390816200008f919062000790565b508060049081620000a1919062000790565b5050505f73ffffffffffffffffffffffffffffffffffffffff168173ffffffffffffffffffffffffffffffffffffffff160362000117575f6040517f1e4fbdf70000000000000000000000000000000000000000000000000000000081526004016200010e9190620008b7565b60405180910390fd5b6200012881620001bb60201b60201c565b503360065f6101000a81548173ffffffffffffffffffffffffffffffffffffffff021916908373ffffffffffffffffffffffffffffffffffffffff160217905550620001b560065f9054906101000a900473ffffffffffffffffffffffffffffffffffffffff16670de0b6b3a764000063042c1d80620001a99190620008ff565b6200027e60201b60201c565b620009ea565b5f60055f9054906101000a900473ffffffffffffffffffffffffffffffffffffffff1690508160055f6101000a81548173ffffffffffffffffffffffffffffffffffffffff021916908373ffffffffffffffffffffffffffffffffffffffff1602179055508173ffffffffffffffffffffffffffffffffffffffff168173ffffffffffffffffffffffffffffffffffffffff167f8be0079c531659141344cd1fd0a4f28419497f9722a3daafe3b4186f6b6457e060405160405180910390a35050565b5f73ffffffffffffffffffffffffffffffffffffffff168273ffffffffffffffffffffffffffffffffffffffff1603620002f1575f6040517fec442f05000000000000000000000000000000000000000000000000000000008152600401620002e89190620008b7565b60405180910390fd5b620003045f83836200030860201b60201c565b5050565b5f73ffffffffffffffffffffffffffffffffffffffff168373ffffffffffffffffffffffffffffffffffffffff16036200035c578060025f8282546200034f919062000949565b925050819055506200042d565b5f805f8573ffffffffffffffffffffffffffffffffffffffff1673ffffffffffffffffffffffffffffffffffffffff1681526020019081526020015f2054905081811015620003e8578381836040517fe450d38c000000000000000000000000000000000000000000000000000000008152600401620003df9392919062000994565b60405180910390fd5b8181035f808673ffffffffffffffffffffffffffffffffffffffff1673ffffffffffffffffffffffffffffffffffffffff1681526020019081526020015f2081905550505b5f73ffffffffffffffffffffffffffffffffffffffff168273ffffffffffffffffffffffffffffffffffffffff160362000476578060025f8282540392505081905550620004c0565b805f808473ffffffffffffffffffffffffffffffffffffffff1673ffffffffffffffffffffffffffffffffffffffff1681526020019081526020015f205f82825401925050819055505b8173ffffffffffffffffffffffffffffffffffffffff168373ffffffffffffffffffffffffffffffffffffffff167fddf252ad1be2c89b69c2b068fc378daa952ba7f163c4a11628f55a4df523b3ef836040516200051f9190620009cf565b60405180910390a3505050565b5f81519050919050565b7f4e487b71000000000000000000000000000000000000000000000000000000005f52604160045260245ffd5b7f4e487b71000000000000000000000000000000000000000000000000000000005f52602260045260245ffd5b5f6002820490506001821680620005a857607f821691505b602082108103620005be57620005bd62000563565b5b50919050565b5f819050815f5260205f209050919050565b5f6020601f8301049050919050565b5f82821b905092915050565b5f60088302620006227fffffffffffffffffffffffffffffffffffffffffffffffffffffffffffffffff82620005e5565b6200062e8683620005e5565b95508019841693508086168417925050509392505050565b5f819050919050565b5f819050919050565b5f62000678620006726200066c8462000646565b6200064f565b62000646565b9050919050565b5f819050919050565b620006938362000658565b620006ab620006a2826200067f565b848454620005f1565b825550505050565b5f90565b620006c1620006b3565b620006ce81848462000688565b505050565b5b81811015620006f557620006e95f82620006b7565b600181019050620006d4565b5050565b601f82111562000744576200070e81620005c4565b6200071984620005d6565b8101602085101562000729578190505b620007416200073885620005d6565b830182620006d3565b50505b505050565b5f82821c905092915050565b5f620007665f198460080262000749565b1980831691505092915050565b5f62000780838362000755565b9150826002028217905092915050565b6200079b826200052c565b67ffffffffffffffff811115620007b757620007b662000536565b5b620007c3825462000590565b620007d0828285620006f9565b5f60209050601f83116001811462000806575f8415620007f1578287015190505b620007fd858262000773565b8655506200086c565b601f1984166200081686620005c4565b5f5b828110156200083f5784890151825560018201915060208501945060208101905062000818565b868310156200085f57848901516200085b601f89168262000755565b8355505b6001600288020188555050505b505050505050565b5f73ffffffffffffffffffffffffffffffffffffffff82169050919050565b5f6200089f8262000874565b9050919050565b620008b18162000893565b82525050565b5f602082019050620008cc5f830184620008a6565b92915050565b7f4e487b71000000000000000000000000000000000000000000000000000000005f52601160045260245ffd5b5f6200090b8262000646565b9150620009188362000646565b9250828202620009288162000646565b91508282048414831517620009425762000941620008d2565b5b5092915050565b5f620009558262000646565b9150620009628362000646565b92508282019050808211156200097d576200097c620008d2565b5b92915050565b6200098e8162000646565b82525050565b5f606082019050620009a95f830186620008a6565b620009b8602083018562000983565b620009c7604083018462000983565b949350505050565b5f602082019050620009e45f83018462000983565b92915050565b61228880620009f85f395ff3fe608060405234801561000f575f80fd5b5060043610610114575f3560e01c8063715018a6116100a057806399cdee0e1161006f57806399cdee0e146102e4578063a409371814610302578063a9059cbb1461031e578063dd62ed3e1461034e578063f2fde38b1461037e57610114565b8063715018a614610282578063738f49a11461028c5780638da5cb5b146102a857806395d89b41146102c657610114565b8063313ce567116100e7578063313ce567146101b457806331d01637146101d257806335767e6a14610204578063506fa3351461022257806370a082311461025257610114565b806306fdde0314610118578063095ea7b31461013657806318160ddd1461016657806323b872dd14610184575b5f80fd5b61012061039a565b60405161012d91906115b8565b60405180910390f35b610150600480360381019061014b9190611676565b61042a565b60405161015d91906116ce565b60405180910390f35b61016e61044c565b60405161017b91906116f6565b60405180910390f35b61019e6004803603810190610199919061170f565b610455565b6040516101ab91906116ce565b60405180910390f35b6101bc610483565b6040516101c9919061177a565b60405180910390f35b6101ec60048036038101906101e79190611676565b61048b565b6040516101fb93929190611793565b60405180910390f35b61020c6105d7565b604051610219919061193c565b60405180910390f35b61023c6004803603810190610237919061195c565b610797565b60405161024991906119db565b60405180910390f35b61026c600480360381019061026791906119fb565b610935565b60405161027991906116f6565b60405180910390f35b61028a61097a565b005b6102a660048036038101906102a19190611b52565b61098d565b005b6102b0610b11565b6040516102bd9190611bd7565b60405180910390f35b6102ce610b39565b6040516102db91906115b8565b60405180910390f35b6102ec610bc9565b6040516102f99190611c10565b60405180910390f35b61031c60048036038101906103179190611c29565b610bee565b005b61033860048036038101906103339190611676565b610c1b565b60405161034591906116ce565b60405180910390f35b61036860048036038101906103639190611c67565b610c3d565b60405161037591906116f6565b60405180910390f35b610398600480360381019061039391906119fb565b610cbf565b005b6060600380546103a990611cd2565b80601f01602080910402602001604051908101604052809291908181526020018280546103d590611cd2565b80156104205780601f106103f757610100808354040283529160200191610420565b820191905f5260205f20905b81548152906001019060200180831161040357829003601f168201915b5050505050905090565b5f80610434610d43565b9050610441818585610d4a565b600191505092915050565b5f600254905090565b5f8061045f610d43565b905061046c858285610d5c565b610477858585610dee565b60019150509392505050565b5f6012905090565b6007602052815f5260405f2081815481106104a4575f80fd5b905f5260205f2090600302015f9150915050805f0180546104c490611cd2565b80601f01602080910402602001604051908101604052809291908181526020018280546104f090611cd2565b801561053b5780601f106105125761010080835404028352916020019161053b565b820191905f5260205f20905b81548152906001019060200180831161051e57829003601f168201915b50505050509080600101805461055090611cd2565b80601f016020809104026020016040519081016040528092919081815260200182805461057c90611cd2565b80156105c75780601f1061059e576101008083540402835291602001916105c7565b820191905f5260205f20905b8154815290600101906020018083116105aa57829003601f168201915b5050505050908060020154905083565b606060075f3373ffffffffffffffffffffffffffffffffffffffff1673ffffffffffffffffffffffffffffffffffffffff1681526020019081526020015f20805480602002602001604051908101604052809291908181526020015f905b8282101561078e578382905f5260205f2090600302016040518060600160405290815f8201805461066590611cd2565b80601f016020809104026020016040519081016040528092919081815260200182805461069190611cd2565b80156106dc5780601f106106b3576101008083540402835291602001916106dc565b820191905f5260205f20905b8154815290600101906020018083116106bf57829003601f168201915b505050505081526020016001820180546106f590611cd2565b80601f016020809104026020016040519081016040528092919081815260200182805461072190611cd2565b801561076c5780601f106107435761010080835404028352916020019161076c565b820191905f5260205f20905b81548152906001019060200180831161074f57829003601f168201915b5050505050815260200160028201548152505081526020019060010190610635565b50505050905090565b61079f61150e565b60075f3373ffffffffffffffffffffffffffffffffffffffff1673ffffffffffffffffffffffffffffffffffffffff1681526020019081526020015f2082815481106107ee576107ed611d02565b5b905f5260205f2090600302016040518060600160405290815f8201805461081490611cd2565b80601f016020809104026020016040519081016040528092919081815260200182805461084090611cd2565b801561088b5780601f106108625761010080835404028352916020019161088b565b820191905f5260205f20905b81548152906001019060200180831161086e57829003601f168201915b505050505081526020016001820180546108a490611cd2565b80601f01602080910402602001604051908101604052809291908181526020018280546108d090611cd2565b801561091b5780601f106108f25761010080835404028352916020019161091b565b820191905f5260205f20905b8154815290600101906020018083116108fe57829003601f168201915b505050505081526020016002820154815250509050919050565b5f805f8373ffffffffffffffffffffffffffffffffffffffff1673ffffffffffffffffffffffffffffffffffffffff1681526020019081526020015f20549050919050565b610982610ede565b61098b5f610f65565b565b5f604051806060016040528084815260200183815260200142815250905060075f3373ffffffffffffffffffffffffffffffffffffffff1673ffffffffffffffffffffffffffffffffffffffff1681526020019081526020015f2081908060018154018082558091505060019003905f5260205f2090600302015f909190919091505f820151815f019081610a229190611ecc565b506020820151816001019081610a389190611ecc565b506040820151816002015550505f6103e8905080610a5c610a57610b11565b610935565b1015610a9d576040517f08c379a0000000000000000000000000000000000000000000000000000000008152600401610a9490611fe5565b60405180910390fd5b610aae610aa8610b11565b82611028565b610ab83382610c1b565b503373ffffffffffffffffffffffffffffffffffffffff167fed4e923a3f528137294fb184b1bb3324b2fb0c92fcbc14717a265896362c5194858584604051610b0393929190611793565b60405180910390a250505050565b5f60055f9054906101000a900473ffffffffffffffffffffffffffffffffffffffff16905090565b606060048054610b4890611cd2565b80601f0160208091040260200160405190810160405280929190818152602001828054610b7490611cd2565b8015610bbf5780601f10610b9657610100808354040283529160200191610bbf565b820191905f5260205f20905b815481529060010190602001808311610ba257829003601f168201915b5050505050905090565b60065f9054906101000a900473ffffffffffffffffffffffffffffffffffffffff1681565b610bf6610ede565b610c173382600a610c07919061215f565b84610c1291906121a9565b6110a7565b5050565b5f80610c25610d43565b9050610c32818585610dee565b600191505092915050565b5f60015f8473ffffffffffffffffffffffffffffffffffffffff1673ffffffffffffffffffffffffffffffffffffffff1681526020019081526020015f205f8373ffffffffffffffffffffffffffffffffffffffff1673ffffffffffffffffffffffffffffffffffffffff1681526020019081526020015f2054905092915050565b610cc7610ede565b5f73ffffffffffffffffffffffffffffffffffffffff168173ffffffffffffffffffffffffffffffffffffffff1603610d37575f6040517f1e4fbdf7000000000000000000000000000000000000000000000000000000008152600401610d2e9190611bd7565b60405180910390fd5b610d4081610f65565b50565b5f33905090565b610d578383836001611126565b505050565b5f610d678484610c3d565b90507fffffffffffffffffffffffffffffffffffffffffffffffffffffffffffffffff8114610de85781811015610dd9578281836040517ffb8f41b2000000000000000000000000000000000000000000000000000000008152600401610dd0939291906121ea565b60405180910390fd5b610de784848484035f611126565b5b50505050565b5f73ffffffffffffffffffffffffffffffffffffffff168373ffffffffffffffffffffffffffffffffffffffff1603610e5e575f6040517f96c6fd1e000000000000000000000000000000000000000000000000000000008152600401610e559190611bd7565b60405180910390fd5b5f73ffffffffffffffffffffffffffffffffffffffff168273ffffffffffffffffffffffffffffffffffffffff1603610ece575f6040517fec442f05000000000000000000000000000000000000000000000000000000008152600401610ec59190611bd7565b60405180910390fd5b610ed98383836112f5565b505050565b610ee6610d43565b73ffffffffffffffffffffffffffffffffffffffff16610f04610b11565b73ffffffffffffffffffffffffffffffffffffffff1614610f6357610f27610d43565b6040517f118cdaa7000000000000000000000000000000000000000000000000000000008152600401610f5a9190611bd7565b60405180910390fd5b565b5f60055f9054906101000a900473ffffffffffffffffffffffffffffffffffffffff1690508160055f6101000a81548173ffffffffffffffffffffffffffffffffffffffff021916908373ffffffffffffffffffffffffffffffffffffffff1602179055508173ffffffffffffffffffffffffffffffffffffffff168173ffffffffffffffffffffffffffffffffffffffff167f8be0079c531659141344cd1fd0a4f28419497f9722a3daafe3b4186f6b6457e060405160405180910390a35050565b5f73ffffffffffffffffffffffffffffffffffffffff168273ffffffffffffffffffffffffffffffffffffffff1603611098575f6040517f96c6fd1e00000000000000000000000000000000000000000000000000000000815260040161108f9190611bd7565b60405180910390fd5b6110a3825f836112f5565b5050565b5f73ffffffffffffffffffffffffffffffffffffffff168273ffffffffffffffffffffffffffffffffffffffff1603611117575f6040517fec442f0500000000000000000000000000000000000000000000000000000000815260040161110e9190611bd7565b60405180910390fd5b6111225f83836112f5565b5050565b5f73ffffffffffffffffffffffffffffffffffffffff168473ffffffffffffffffffffffffffffffffffffffff1603611196575f6040517fe602df0500000000000000000000000000000000000000000000000000000000815260040161118d9190611bd7565b60405180910390fd5b5f73ffffffffffffffffffffffffffffffffffffffff168373ffffffffffffffffffffffffffffffffffffffff1603611206575f6040517f94280d620000000000000000000000000000000000000000000000000000000081526004016111fd9190611bd7565b60405180910390fd5b8160015f8673ffffffffffffffffffffffffffffffffffffffff1673ffffffffffffffffffffffffffffffffffffffff1681526020019081526020015f205f8573ffffffffffffffffffffffffffffffffffffffff1673ffffffffffffffffffffffffffffffffffffffff1681526020019081526020015f208190555080156112ef578273ffffffffffffffffffffffffffffffffffffffff168473ffffffffffffffffffffffffffffffffffffffff167f8c5be1e5ebec7d5bd14f71427d1e84f3dd0314c0f7b2291e5b200ac8c7c3b925846040516112e691906116f6565b60405180910390a35b50505050565b5f73ffffffffffffffffffffffffffffffffffffffff168373ffffffffffffffffffffffffffffffffffffffff1603611345578060025f828254611339919061221f565b92505081905550611413565b5f805f8573ffffffffffffffffffffffffffffffffffffffff1673ffffffffffffffffffffffffffffffffffffffff1681526020019081526020015f20549050818110156113ce578381836040517fe450d38c0000000000000000000000000000000000000000000000000000000081526004016113c5939291906121ea565b60405180910390fd5b8181035f808673ffffffffffffffffffffffffffffffffffffffff1673ffffffffffffffffffffffffffffffffffffffff1681526020019081526020015f2081905550505b5f73ffffffffffffffffffffffffffffffffffffffff168273ffffffffffffffffffffffffffffffffffffffff160361145a578060025f82825403925050819055506114a4565b805f808473ffffffffffffffffffffffffffffffffffffffff1673ffffffffffffffffffffffffffffffffffffffff1681526020019081526020015f205f82825401925050819055505b8173ffffffffffffffffffffffffffffffffffffffff168373ffffffffffffffffffffffffffffffffffffffff167fddf252ad1be2c89b69c2b068fc378daa952ba7f163c4a11628f55a4df523b3ef8360405161150191906116f6565b60405180910390a3505050565b604051806060016040528060608152602001606081526020015f81525090565b5f81519050919050565b5f82825260208201905092915050565b5f5b8381101561156557808201518184015260208101905061154a565b5f8484015250505050565b5f601f19601f8301169050919050565b5f61158a8261152e565b6115948185611538565b93506115a4818560208601611548565b6115ad81611570565b840191505092915050565b5f6020820190508181035f8301526115d08184611580565b905092915050565b5f604051905090565b5f80fd5b5f80fd5b5f73ffffffffffffffffffffffffffffffffffffffff82169050919050565b5f611612826115e9565b9050919050565b61162281611608565b811461162c575f80fd5b50565b5f8135905061163d81611619565b92915050565b5f819050919050565b61165581611643565b811461165f575f80fd5b50565b5f813590506116708161164c565b92915050565b5f806040838503121561168c5761168b6115e1565b5b5f6116998582860161162f565b92505060206116aa85828601611662565b9150509250929050565b5f8115159050919050565b6116c8816116b4565b82525050565b5f6020820190506116e15f8301846116bf565b92915050565b6116f081611643565b82525050565b5f6020820190506117095f8301846116e7565b92915050565b5f805f60608486031215611726576117256115e1565b5b5f6117338682870161162f565b93505060206117448682870161162f565b925050604061175586828701611662565b9150509250925092565b5f60ff82169050919050565b6117748161175f565b82525050565b5f60208201905061178d5f83018461176b565b92915050565b5f6060820190508181035f8301526117ab8186611580565b905081810360208301526117bf8185611580565b90506117ce60408301846116e7565b949350505050565b5f81519050919050565b5f82825260208201905092915050565b5f819050602082019050919050565b5f82825260208201905092915050565b5f6118198261152e565b61182381856117ff565b9350611833818560208601611548565b61183c81611570565b840191505092915050565b61185081611643565b82525050565b5f606083015f8301518482035f860152611870828261180f565b9150506020830151848203602086015261188a828261180f565b915050604083015161189f6040860182611847565b508091505092915050565b5f6118b58383611856565b905092915050565b5f602082019050919050565b5f6118d3826117d6565b6118dd81856117e0565b9350836020820285016118ef856117f0565b805f5b8581101561192a578484038952815161190b85826118aa565b9450611916836118bd565b925060208a019950506001810190506118f2565b50829750879550505050505092915050565b5f6020820190508181035f83015261195481846118c9565b905092915050565b5f60208284031215611971576119706115e1565b5b5f61197e84828501611662565b91505092915050565b5f606083015f8301518482035f8601526119a1828261180f565b915050602083015184820360208601526119bb828261180f565b91505060408301516119d06040860182611847565b508091505092915050565b5f6020820190508181035f8301526119f38184611987565b905092915050565b5f60208284031215611a1057611a0f6115e1565b5b5f611a1d8482850161162f565b91505092915050565b5f80fd5b5f80fd5b7f4e487b71000000000000000000000000000000000000000000000000000000005f52604160045260245ffd5b611a6482611570565b810181811067ffffffffffffffff82111715611a8357611a82611a2e565b5b80604052505050565b5f611a956115d8565b9050611aa18282611a5b565b919050565b5f67ffffffffffffffff821115611ac057611abf611a2e565b5b611ac982611570565b9050602081019050919050565b828183375f83830152505050565b5f611af6611af184611aa6565b611a8c565b905082815260208101848484011115611b1257611b11611a2a565b5b611b1d848285611ad6565b509392505050565b5f82601f830112611b3957611b38611a26565b5b8135611b49848260208601611ae4565b91505092915050565b5f8060408385031215611b6857611b676115e1565b5b5f83013567ffffffffffffffff811115611b8557611b846115e5565b5b611b9185828601611b25565b925050602083013567ffffffffffffffff811115611bb257611bb16115e5565b5b611bbe85828601611b25565b9150509250929050565b611bd181611608565b82525050565b5f602082019050611bea5f830184611bc8565b92915050565b5f611bfa826115e9565b9050919050565b611c0a81611bf0565b82525050565b5f602082019050611c235f830184611c01565b92915050565b5f8060408385031215611c3f57611c3e6115e1565b5b5f611c4c85828601611662565b9250506020611c5d85828601611662565b9150509250929050565b5f8060408385031215611c7d57611c7c6115e1565b5b5f611c8a8582860161162f565b9250506020611c9b8582860161162f565b9150509250929050565b7f4e487b71000000000000000000000000000000000000000000000000000000005f52602260045260245ffd5b5f6002820490506001821680611ce957607f821691505b602082108103611cfc57611cfb611ca5565b5b50919050565b7f4e487b71000000000000000000000000000000000000000000000000000000005f52603260045260245ffd5b5f819050815f5260205f209050919050565b5f6020601f8301049050919050565b5f82821b905092915050565b5f60088302611d8b7fffffffffffffffffffffffffffffffffffffffffffffffffffffffffffffffff82611d50565b611d958683611d50565b95508019841693508086168417925050509392505050565b5f819050919050565b5f611dd0611dcb611dc684611643565b611dad565b611643565b9050919050565b5f819050919050565b611de983611db6565b611dfd611df582611dd7565b848454611d5c565b825550505050565b5f90565b611e11611e05565b611e1c818484611de0565b505050565b5b81811015611e3f57611e345f82611e09565b600181019050611e22565b5050565b601f821115611e8457611e5581611d2f565b611e5e84611d41565b81016020851015611e6d578190505b611e81611e7985611d41565b830182611e21565b50505b505050565b5f82821c905092915050565b5f611ea45f1984600802611e89565b1980831691505092915050565b5f611ebc8383611e95565b9150826002028217905092915050565b611ed58261152e565b67ffffffffffffffff811115611eee57611eed611a2e565b5b611ef88254611cd2565b611f03828285611e43565b5f60209050601f831160018114611f34575f8415611f22578287015190505b611f2c8582611eb1565b865550611f93565b601f198416611f4286611d2f565b5f5b82811015611f6957848901518255600182019150602085019450602081019050611f44565b86831015611f865784890151611f82601f891682611e95565b8355505b6001600288020188555050505b505050505050565b7f496e73756666696369656e742062616c616e636520666f7220726577617264005f82015250565b5f611fcf601f83611538565b9150611fda82611f9b565b602082019050919050565b5f6020820190508181035f830152611ffc81611fc3565b9050919050565b7f4e487b71000000000000000000000000000000000000000000000000000000005f52601160045260245ffd5b5f8160011c9050919050565b5f808291508390505b60018511156120855780860481111561206157612060612003565b5b60018516156120705780820291505b808102905061207e85612030565b9450612045565b94509492505050565b5f8261209d5760019050612158565b816120aa575f9050612158565b81600181146120c057600281146120ca576120f9565b6001915050612158565b60ff8411156120dc576120db612003565b5b8360020a9150848211156120f3576120f2612003565b5b50612158565b5060208310610133831016604e8410600b841016171561212e5782820a90508381111561212957612128612003565b5b612158565b61213b848484600161203c565b9250905081840481111561215257612151612003565b5b81810290505b9392505050565b5f61216982611643565b915061217483611643565b92506121a17fffffffffffffffffffffffffffffffffffffffffffffffffffffffffffffffff848461208e565b905092915050565b5f6121b382611643565b91506121be83611643565b92508282026121cc81611643565b915082820484148315176121e3576121e2612003565b5b5092915050565b5f6060820190506121fd5f830186611bc8565b61220a60208301856116e7565b61221760408301846116e7565b949350505050565b5f61222982611643565b915061223483611643565b925082820190508082111561224c5761224b612003565b5b9291505056fea26469706673582212205c7128847ce3706b4c7fcfe0c6d62657a3e31ed0db6b6b53ee1f8fd140c935a564736f6c63430008140033",
  "linkReferences": {},
  "deployedLinkReferences": {}
}