{
  "_format": "hh-sol-artifact-1",
  "contractName": "Carbon_Foot_print",
  "sourceName": "contracts/carbon_footprint_risk_analysis.sol",
  "abi": [
    {
      "inputs": [],
      "stateMutability": "nonpayable",
      "type": "constructor"
    },
    {
      "inputs": [
        {
          "internalType": "address",
          "name": "spender",
          "type": "address"
        },
        {
          "internalType": "uint256",
          "name": "allowance",
          "type": "uint256"
        },
        {
          "internalType": "uint256",
          "name": "needed",
          "type": "uint256"
        }
      ],
      "name": "ERC20InsufficientAllowance",
      "type": "error"
    },
    {
      "inputs": [
        {
          "internalType": "address",
          "name": "sender",
          "type": "address"
        },
        {
          "internalType": "uint256",
          "name": "balance",
          "type": "uint256"
        },
        {
          "internalType": "uint256",
          "name": "needed",
          "type": "uint256"
        }
      ],
      "name": "ERC20InsufficientBalance",
      "type": "error"
    },
    {
      "inputs": [
        {
          "internalType": "address",
          "name": "approver",
          "type": "address"
        }
      ],
      "name": "ERC20InvalidApprover",
      "type": "error"
    },
    {
      "inputs": [
        {
          "internalType": "address",
          "name": "receiver",
          "type": "address"
        }
      ],
      "name": "ERC20InvalidReceiver",
      "type": "error"
    },
    {
      "inputs": [
        {
          "internalType": "address",
          "name": "sender",
          "type": "address"
        }
      ],
      "name": "ERC20InvalidSender",
      "type": "error"
    },
    {
      "inputs": [
        {
          "internalType": "address",
          "name": "spender",
          "type": "address"
        }
      ],
      "name": "ERC20InvalidSpender",
      "type": "error"
    },
    {
      "inputs": [
        {
          "internalType": "address",
          "name": "owner",
          "type": "address"
        }
      ],
      "name": "OwnableInvalidOwner",
      "type": "error"
    },
    {
      "inputs": [
        {
          "internalType": "address",
          "name": "account",
          "type": "address"
        }
      ],
      "name": "OwnableUnauthorizedAccount",
      "type": "error"
    },
    {
      "anonymous": false,
      "inputs": [
        {
          "indexed": true,
          "internalType": "address",
          "name": "owner",
          "type": "address"
        },
        {
          "indexed": true,
          "internalType": "address",
          "name": "spender",
          "type": "address"
        },
        {
          "indexed": false,
          "internalType": "uint256",
          "name": "value",
          "type": "uint256"
        }
      ],
      "name": "Approval",
      "type": "event"
    },
    {
      "anonymous": false,
      "inputs": [
        {
          "indexed": true,
          "internalType": "address",
          "name": "user",
          "type": "address"
        },
        {
          "indexed": false,
          "internalType": "string",
          "name": "analysisRequest",
          "type": "string"
        },
        {
          "indexed": false,
          "internalType": "string",
          "name": "analysisResult",
          "type": "string"
        },
        {
          "indexed": false,
          "internalType": "uint256",
          "name": "rewardToken",
          "type": "uint256"
        }
      ],
      "name": "DataAdded",
      "type": "event"
    },
    {
      "anonymous": false,
      "inputs": [
        {
          "indexed": true,
          "internalType": "address",
          "name": "previousOwner",
          "type": "address"
        },
        {
          "indexed": true,
          "internalType": "address",
          "name": "newOwner",
          "type": "address"
        }
      ],
      "name": "OwnershipTransferred",
      "type": "event"
    },
    {
      "anonymous": false,
      "inputs": [
        {
          "indexed": true,
          "internalType": "address",
          "name": "from",
          "type": "address"
        },
        {
          "indexed": true,
          "internalType": "address",
          "name": "to",
          "type": "address"
        },
        {
          "indexed": false,
          "internalType": "uint256",
          "name": "value",
          "type": "uint256"
        }
      ],
      "name": "Transfer",
      "type": "event"
    },
    {
      "inputs": [
        {
          "internalType": "string",
          "name": "analysisRequest",
          "type": "string"
        },
        {
          "internalType": "string",
          "name": "analysisResult",
          "type": "string"
        }
      ],
      "name": "addAnalyzedData",
      "outputs": [],
      "stateMutability": "nonpayable",
      "type": "function"
    },
    {
      "inputs": [
        {
          "internalType": "address",
          "name": "owner",
          "type": "address"
        },
        {
          "internalType": "address",
          "name": "spender",
          "type": "address"
        }
      ],
      "name": "allowance",
      "outputs": [
        {
          "internalType": "uint256",
          "name": "",
          "type": "uint256"
        }
      ],
      "stateMutability": "view",
      "type": "function"
    },
    {
      "inputs": [
        {
          "internalType": "address",
          "name": "",
          "type": "address"
        },
        {
          "internalType": "uint256",
          "name": "",
          "type": "uint256"
        }
      ],
      "name": "analyzedData",
      "outputs": [
        {
          "internalType": "string",
          "name": "analysisRequest",
          "type": "string"
        },
        {
          "internalType": "string",
          "name": "analysisResult",
          "type": "string"
        },
        {
          "internalType": "uint256",
          "name": "storedTimestamp",
          "type": "uint256"
        }
      ],
      "stateMutability": "view",
      "type": "function"
    },
    {
      "inputs": [
        {
          "internalType": "address",
          "name": "spender",
          "type": "address"
        },
        {
          "internalType": "uint256",
          "name": "value",
          "type": "uint256"
        }
      ],
      "name": "approve",
      "outputs": [
        {
          "internalType": "bool",
          "name": "",
          "type": "bool"
        }
      ],
      "stateMutability": "nonpayable",
      "type": "function"
    },
    {
      "inputs": [
        {
          "internalType": "address",
          "name": "account",
          "type": "address"
        }
      ],
      "name": "balanceOf",
      "outputs": [
        {
          "internalType": "uint256",
          "name": "",
          "type": "uint256"
        }
      ],
      "stateMutability": "view",
      "type": "function"
    },
    {
      "inputs": [],
      "name": "decimals",
      "outputs": [
        {
          "internalType": "uint8",
          "name": "",
          "type": "uint8"
        }
      ],
      "stateMutability": "view",
      "type": "function"
    },
    {
      "inputs": [],
      "name": "getAllAnalyzedData",
      "outputs": [
        {
          "components": [
            {
              "internalType": "string",
              "name": "analysisRequest",
              "type": "string"
            },
            {
              "internalType": "string",
              "name": "analysisResult",
              "type": "string"
            },
            {
              "internalType": "uint256",
              "name": "storedTimestamp",
              "type": "uint256"
            }
          ],
          "internalType": "struct Carbon_Foot_print.Data[]",
          "name": "",
          "type": "tuple[]"
        }
      ],
      "stateMutability": "view",
      "type": "function"
    },
    {
      "inputs": [
        {
          "internalType": "uint256",
          "name": "amount",
          "type": "uint256"
        },
        {
          "internalType": "uint256",
          "name": "decimal",
          "type": "uint256"
        }
      ],
      "name": "issueToken",
      "outputs": [],
      "stateMutability": "nonpayable",
      "type": "function"
    },
    {
      "inputs": [],
      "name": "name",
      "outputs": [
        {
          "internalType": "string",
          "name": "",
          "type": "string"
        }
      ],
      "stateMutability": "view",
      "type": "function"
    },
    {
      "inputs": [],
      "name": "own",
      "outputs": [
        {
          "internalType": "address payable",
          "name": "",
          "type": "address"
        }
      ],
      "stateMutability": "view",
      "type": "function"
    },
    {
      "inputs": [],
      "name": "owner",
      "outputs": [
        {
          "internalType": "address",
          "name": "",
          "type": "address"
        }
      ],
      "stateMutability": "view",
      "type": "function"
    },
    {
      "inputs": [],
      "name": "renounceOwnership",
      "outputs": [],
      "stateMutability": "nonpayable",
      "type": "function"
    },
    {
      "inputs": [],
      "name": "symbol",
      "outputs": [
        {
          "internalType": "string",
          "name": "",
          "type": "string"
        }
      ],
      "stateMutability": "view",
      "type": "function"
    },
    {
      "inputs": [],
      "name": "totalSupply",
      "outputs": [
        {
          "internalType": "uint256",
          "name": "",
          "type": "uint256"
        }
      ],
      "stateMutability": "view",
      "type": "function"
    },
    {
      "inputs": [
        {
          "internalType": "address",
          "name": "to",
          "type": "address"
        },
        {
          "internalType": "uint256",
          "name": "value",
          "type": "uint256"
        }
      ],
      "name": "transfer",
      "outputs": [
        {
          "internalType": "bool",
          "name": "",
          "type": "bool"
        }
      ],
      "stateMutability": "nonpayable",
      "type": "function"
    },
    {
      "inputs": [
        {
          "internalType": "address",
          "name": "from",
          "type": "address"
        },
        {
          "internalType": "address",
          "name": "to",
          "type": "address"
        },
        {
          "internalType": "uint256",
          "name": "value",
          "type": "uint256"
        }
      ],
      "name": "transferFrom",
      "outputs": [
        {
          "internalType": "bool",
          "name": "",
          "type": "bool"
        }
      ],
      "stateMutability": "nonpayable",
      "type": "function"
    },
    {
      "inputs": [
        {
          "internalType": "address",
          "name": "newOwner",
          "type": "address"
        }
      ],
      "name": "transferOwnership",
      "outputs": [],
      "stateMutability": "nonpayable",
      "type": "function"
    }
  ],
  "bytecode": "0x608060405234801562000010575f80fd5b50336040518060400160405280600f81526020017f436172626f6e20656d697373696f6e00000000000000000000000000000000008152506040518060400160405280600381526020017f434f32000000000000000000000000000000000000000000000000000000000081525081600390816200008f919062000782565b508060049081620000a1919062000782565b5050505f73ffffffffffffffffffffffffffffffffffffffff168173ffffffffffffffffffffffffffffffffffffffff160362000117575f6040517f1e4fbdf70000000000000000000000000000000000000000000000000000000081526004016200010e9190620008a9565b60405180910390fd5b6200012881620001ad60201b60201c565b503360065f6101000a81548173ffffffffffffffffffffffffffffffffffffffff021916908373ffffffffffffffffffffffffffffffffffffffff160217905550620001a760065f9054906101000a900473ffffffffffffffffffffffffffffffffffffffff166a39e7139a8c08fa060000006200027060201b60201c565b62000992565b5f60055f9054906101000a900473ffffffffffffffffffffffffffffffffffffffff1690508160055f6101000a81548173ffffffffffffffffffffffffffffffffffffffff021916908373ffffffffffffffffffffffffffffffffffffffff1602179055508173ffffffffffffffffffffffffffffffffffffffff168173ffffffffffffffffffffffffffffffffffffffff167f8be0079c531659141344cd1fd0a4f28419497f9722a3daafe3b4186f6b6457e060405160405180910390a35050565b5f73ffffffffffffffffffffffffffffffffffffffff168273ffffffffffffffffffffffffffffffffffffffff1603620002e3575f6040517fec442f05000000000000000000000000000000000000000000000000000000008152600401620002da9190620008a9565b60405180910390fd5b620002f65f8383620002fa60201b60201c565b5050565b5f73ffffffffffffffffffffffffffffffffffffffff168373ffffffffffffffffffffffffffffffffffffffff16036200034e578060025f828254620003419190620008f1565b925050819055506200041f565b5f805f8573ffffffffffffffffffffffffffffffffffffffff1673ffffffffffffffffffffffffffffffffffffffff1681526020019081526020015f2054905081811015620003da578381836040517fe450d38c000000000000000000000000000000000000000000000000000000008152600401620003d1939291906200093c565b60405180910390fd5b8181035f808673ffffffffffffffffffffffffffffffffffffffff1673ffffffffffffffffffffffffffffffffffffffff1681526020019081526020015f2081905550505b5f73ffffffffffffffffffffffffffffffffffffffff168273ffffffffffffffffffffffffffffffffffffffff160362000468578060025f8282540392505081905550620004b2565b805f808473ffffffffffffffffffffffffffffffffffffffff1673ffffffffffffffffffffffffffffffffffffffff1681526020019081526020015f205f82825401925050819055505b8173ffffffffffffffffffffffffffffffffffffffff168373ffffffffffffffffffffffffffffffffffffffff167fddf252ad1be2c89b69c2b068fc378daa952ba7f163c4a11628f55a4df523b3ef8360405162000511919062000977565b60405180910390a3505050565b5f81519050919050565b7f4e487b71000000000000000000000000000000000000000000000000000000005f52604160045260245ffd5b7f4e487b71000000000000000000000000000000000000000000000000000000005f52602260045260245ffd5b5f60028204905060018216806200059a57607f821691505b602082108103620005b057620005af62000555565b5b50919050565b5f819050815f5260205f209050919050565b5f6020601f8301049050919050565b5f82821b905092915050565b5f60088302620006147fffffffffffffffffffffffffffffffffffffffffffffffffffffffffffffffff82620005d7565b620006208683620005d7565b95508019841693508086168417925050509392505050565b5f819050919050565b5f819050919050565b5f6200066a620006646200065e8462000638565b62000641565b62000638565b9050919050565b5f819050919050565b62000685836200064a565b6200069d620006948262000671565b848454620005e3565b825550505050565b5f90565b620006b3620006a5565b620006c08184846200067a565b505050565b5b81811015620006e757620006db5f82620006a9565b600181019050620006c6565b5050565b601f82111562000736576200070081620005b6565b6200070b84620005c8565b810160208510156200071b578190505b620007336200072a85620005c8565b830182620006c5565b50505b505050565b5f82821c905092915050565b5f620007585f19846008026200073b565b1980831691505092915050565b5f62000772838362000747565b9150826002028217905092915050565b6200078d826200051e565b67ffffffffffffffff811115620007a957620007a862000528565b5b620007b5825462000582565b620007c2828285620006eb565b5f60209050601f831160018114620007f8575f8415620007e3578287015190505b620007ef858262000765565b8655506200085e565b601f1984166200080886620005b6565b5f5b8281101562000831578489015182556001820191506020850194506020810190506200080a565b868310156200085157848901516200084d601f89168262000747565b8355505b6001600288020188555050505b505050505050565b5f73ffffffffffffffffffffffffffffffffffffffff82169050919050565b5f620008918262000866565b9050919050565b620008a38162000885565b82525050565b5f602082019050620008be5f83018462000898565b92915050565b7f4e487b71000000000000000000000000000000000000000000000000000000005f52601160045260245ffd5b5f620008fd8262000638565b91506200090a8362000638565b9250828201905080821115620009255762000924620008c4565b5b92915050565b620009368162000638565b82525050565b5f606082019050620009515f83018662000898565b6200096060208301856200092b565b6200096f60408301846200092b565b949350505050565b5f6020820190506200098c5f8301846200092b565b92915050565b611fc380620009a05f395ff3fe608060405234801561000f575f80fd5b5060043610610109575f3560e01c8063715018a6116100a057806399cdee0e1161006f57806399cdee0e146102a9578063a4093718146102c7578063a9059cbb146102e3578063dd62ed3e14610313578063f2fde38b1461034357610109565b8063715018a614610247578063738f49a1146102515780638da5cb5b1461026d57806395d89b411461028b57610109565b8063313ce567116100dc578063313ce567146101a957806331d01637146101c757806335767e6a146101f957806370a082311461021757610109565b806306fdde031461010d578063095ea7b31461012b57806318160ddd1461015b57806323b872dd14610179575b5f80fd5b61011561035f565b60405161012291906113bf565b60405180910390f35b6101456004803603810190610140919061147d565b6103ef565b60405161015291906114d5565b60405180910390f35b610163610411565b60405161017091906114fd565b60405180910390f35b610193600480360381019061018e9190611516565b61041a565b6040516101a091906114d5565b60405180910390f35b6101b1610448565b6040516101be9190611581565b60405180910390f35b6101e160048036038101906101dc919061147d565b610450565b6040516101f09392919061159a565b60405180910390f35b61020161059c565b60405161020e9190611743565b60405180910390f35b610231600480360381019061022c9190611763565b61075c565b60405161023e91906114fd565b60405180910390f35b61024f6107a1565b005b61026b600480360381019061026691906118ba565b6107b4565b005b610275610938565b604051610282919061193f565b60405180910390f35b610293610960565b6040516102a091906113bf565b60405180910390f35b6102b16109f0565b6040516102be9190611978565b60405180910390f35b6102e160048036038101906102dc9190611991565b610a15565b005b6102fd60048036038101906102f8919061147d565b610a42565b60405161030a91906114d5565b60405180910390f35b61032d600480360381019061032891906119cf565b610a64565b60405161033a91906114fd565b60405180910390f35b61035d60048036038101906103589190611763565b610ae6565b005b60606003805461036e90611a3a565b80601f016020809104026020016040519081016040528092919081815260200182805461039a90611a3a565b80156103e55780601f106103bc576101008083540402835291602001916103e5565b820191905f5260205f20905b8154815290600101906020018083116103c857829003601f168201915b5050505050905090565b5f806103f9610b6a565b9050610406818585610b71565b600191505092915050565b5f600254905090565b5f80610424610b6a565b9050610431858285610b83565b61043c858585610c15565b60019150509392505050565b5f6012905090565b6007602052815f5260405f208181548110610469575f80fd5b905f5260205f2090600302015f9150915050805f01805461048990611a3a565b80601f01602080910402602001604051908101604052809291908181526020018280546104b590611a3a565b80156105005780601f106104d757610100808354040283529160200191610500565b820191905f5260205f20905b8154815290600101906020018083116104e357829003601f168201915b50505050509080600101805461051590611a3a565b80601f016020809104026020016040519081016040528092919081815260200182805461054190611a3a565b801561058c5780601f106105635761010080835404028352916020019161058c565b820191905f5260205f20905b81548152906001019060200180831161056f57829003601f168201915b5050505050908060020154905083565b606060075f3373ffffffffffffffffffffffffffffffffffffffff1673ffffffffffffffffffffffffffffffffffffffff1681526020019081526020015f20805480602002602001604051908101604052809291908181526020015f905b82821015610753578382905f5260205f2090600302016040518060600160405290815f8201805461062a90611a3a565b80601f016020809104026020016040519081016040528092919081815260200182805461065690611a3a565b80156106a15780601f10610678576101008083540402835291602001916106a1565b820191905f5260205f20905b81548152906001019060200180831161068457829003601f168201915b505050505081526020016001820180546106ba90611a3a565b80601f01602080910402602001604051908101604052809291908181526020018280546106e690611a3a565b80156107315780601f1061070857610100808354040283529160200191610731565b820191905f5260205f20905b81548152906001019060200180831161071457829003601f168201915b50505050508152602001600282015481525050815260200190600101906105fa565b50505050905090565b5f805f8373ffffffffffffffffffffffffffffffffffffffff1673ffffffffffffffffffffffffffffffffffffffff1681526020019081526020015f20549050919050565b6107a9610d05565b6107b25f610d8c565b565b5f604051806060016040528084815260200183815260200142815250905060075f3373ffffffffffffffffffffffffffffffffffffffff1673ffffffffffffffffffffffffffffffffffffffff1681526020019081526020015f2081908060018154018082558091505060019003905f5260205f2090600302015f909190919091505f820151815f0190816108499190611c07565b50602082015181600101908161085f9190611c07565b506040820151816002015550505f6103e890508061088361087e610938565b61075c565b10156108c4576040517f08c379a00000000000000000000000000000000000000000000000000000000081526004016108bb90611d20565b60405180910390fd5b6108d56108cf610938565b82610e4f565b6108df3382610a42565b503373ffffffffffffffffffffffffffffffffffffffff167fed4e923a3f528137294fb184b1bb3324b2fb0c92fcbc14717a265896362c519485858460405161092a9392919061159a565b60405180910390a250505050565b5f60055f9054906101000a900473ffffffffffffffffffffffffffffffffffffffff16905090565b60606004805461096f90611a3a565b80601f016020809104026020016040519081016040528092919081815260200182805461099b90611a3a565b80156109e65780601f106109bd576101008083540402835291602001916109e6565b820191905f5260205f20905b8154815290600101906020018083116109c957829003601f168201915b5050505050905090565b60065f9054906101000a900473ffffffffffffffffffffffffffffffffffffffff1681565b610a1d610d05565b610a3e3382600a610a2e9190611e9a565b84610a399190611ee4565b610ece565b5050565b5f80610a4c610b6a565b9050610a59818585610c15565b600191505092915050565b5f60015f8473ffffffffffffffffffffffffffffffffffffffff1673ffffffffffffffffffffffffffffffffffffffff1681526020019081526020015f205f8373ffffffffffffffffffffffffffffffffffffffff1673ffffffffffffffffffffffffffffffffffffffff1681526020019081526020015f2054905092915050565b610aee610d05565b5f73ffffffffffffffffffffffffffffffffffffffff168173ffffffffffffffffffffffffffffffffffffffff1603610b5e575f6040517f1e4fbdf7000000000000000000000000000000000000000000000000000000008152600401610b55919061193f565b60405180910390fd5b610b6781610d8c565b50565b5f33905090565b610b7e8383836001610f4d565b505050565b5f610b8e8484610a64565b90507fffffffffffffffffffffffffffffffffffffffffffffffffffffffffffffffff8114610c0f5781811015610c00578281836040517ffb8f41b2000000000000000000000000000000000000000000000000000000008152600401610bf793929190611f25565b60405180910390fd5b610c0e84848484035f610f4d565b5b50505050565b5f73ffffffffffffffffffffffffffffffffffffffff168373ffffffffffffffffffffffffffffffffffffffff1603610c85575f6040517f96c6fd1e000000000000000000000000000000000000000000000000000000008152600401610c7c919061193f565b60405180910390fd5b5f73ffffffffffffffffffffffffffffffffffffffff168273ffffffffffffffffffffffffffffffffffffffff1603610cf5575f6040517fec442f05000000000000000000000000000000000000000000000000000000008152600401610cec919061193f565b60405180910390fd5b610d0083838361111c565b505050565b610d0d610b6a565b73ffffffffffffffffffffffffffffffffffffffff16610d2b610938565b73ffffffffffffffffffffffffffffffffffffffff1614610d8a57610d4e610b6a565b6040517f118cdaa7000000000000000000000000000000000000000000000000000000008152600401610d81919061193f565b60405180910390fd5b565b5f60055f9054906101000a900473ffffffffffffffffffffffffffffffffffffffff1690508160055f6101000a81548173ffffffffffffffffffffffffffffffffffffffff021916908373ffffffffffffffffffffffffffffffffffffffff1602179055508173ffffffffffffffffffffffffffffffffffffffff168173ffffffffffffffffffffffffffffffffffffffff167f8be0079c531659141344cd1fd0a4f28419497f9722a3daafe3b4186f6b6457e060405160405180910390a35050565b5f73ffffffffffffffffffffffffffffffffffffffff168273ffffffffffffffffffffffffffffffffffffffff1603610ebf575f6040517f96c6fd1e000000000000000000000000000000000000000000000000000000008152600401610eb6919061193f565b60405180910390fd5b610eca825f8361111c565b5050565b5f73ffffffffffffffffffffffffffffffffffffffff168273ffffffffffffffffffffffffffffffffffffffff1603610f3e575f6040517fec442f05000000000000000000000000000000000000000000000000000000008152600401610f35919061193f565b60405180910390fd5b610f495f838361111c565b5050565b5f73ffffffffffffffffffffffffffffffffffffffff168473ffffffffffffffffffffffffffffffffffffffff1603610fbd575f6040517fe602df05000000000000000000000000000000000000000000000000000000008152600401610fb4919061193f565b60405180910390fd5b5f73ffffffffffffffffffffffffffffffffffffffff168373ffffffffffffffffffffffffffffffffffffffff160361102d575f6040517f94280d62000000000000000000000000000000000000000000000000000000008152600401611024919061193f565b60405180910390fd5b8160015f8673ffffffffffffffffffffffffffffffffffffffff1673ffffffffffffffffffffffffffffffffffffffff1681526020019081526020015f205f8573ffffffffffffffffffffffffffffffffffffffff1673ffffffffffffffffffffffffffffffffffffffff1681526020019081526020015f20819055508015611116578273ffffffffffffffffffffffffffffffffffffffff168473ffffffffffffffffffffffffffffffffffffffff167f8c5be1e5ebec7d5bd14f71427d1e84f3dd0314c0f7b2291e5b200ac8c7c3b9258460405161110d91906114fd565b60405180910390a35b50505050565b5f73ffffffffffffffffffffffffffffffffffffffff168373ffffffffffffffffffffffffffffffffffffffff160361116c578060025f8282546111609190611f5a565b9250508190555061123a565b5f805f8573ffffffffffffffffffffffffffffffffffffffff1673ffffffffffffffffffffffffffffffffffffffff1681526020019081526020015f20549050818110156111f5578381836040517fe450d38c0000000000000000000000000000000000000000000000000000000081526004016111ec93929190611f25565b60405180910390fd5b8181035f808673ffffffffffffffffffffffffffffffffffffffff1673ffffffffffffffffffffffffffffffffffffffff1681526020019081526020015f2081905550505b5f73ffffffffffffffffffffffffffffffffffffffff168273ffffffffffffffffffffffffffffffffffffffff1603611281578060025f82825403925050819055506112cb565b805f808473ffffffffffffffffffffffffffffffffffffffff1673ffffffffffffffffffffffffffffffffffffffff1681526020019081526020015f205f82825401925050819055505b8173ffffffffffffffffffffffffffffffffffffffff168373ffffffffffffffffffffffffffffffffffffffff167fddf252ad1be2c89b69c2b068fc378daa952ba7f163c4a11628f55a4df523b3ef8360405161132891906114fd565b60405180910390a3505050565b5f81519050919050565b5f82825260208201905092915050565b5f5b8381101561136c578082015181840152602081019050611351565b5f8484015250505050565b5f601f19601f8301169050919050565b5f61139182611335565b61139b818561133f565b93506113ab81856020860161134f565b6113b481611377565b840191505092915050565b5f6020820190508181035f8301526113d78184611387565b905092915050565b5f604051905090565b5f80fd5b5f80fd5b5f73ffffffffffffffffffffffffffffffffffffffff82169050919050565b5f611419826113f0565b9050919050565b6114298161140f565b8114611433575f80fd5b50565b5f8135905061144481611420565b92915050565b5f819050919050565b61145c8161144a565b8114611466575f80fd5b50565b5f8135905061147781611453565b92915050565b5f8060408385031215611493576114926113e8565b5b5f6114a085828601611436565b92505060206114b185828601611469565b9150509250929050565b5f8115159050919050565b6114cf816114bb565b82525050565b5f6020820190506114e85f8301846114c6565b92915050565b6114f78161144a565b82525050565b5f6020820190506115105f8301846114ee565b92915050565b5f805f6060848603121561152d5761152c6113e8565b5b5f61153a86828701611436565b935050602061154b86828701611436565b925050604061155c86828701611469565b9150509250925092565b5f60ff82169050919050565b61157b81611566565b82525050565b5f6020820190506115945f830184611572565b92915050565b5f6060820190508181035f8301526115b28186611387565b905081810360208301526115c68185611387565b90506115d560408301846114ee565b949350505050565b5f81519050919050565b5f82825260208201905092915050565b5f819050602082019050919050565b5f82825260208201905092915050565b5f61162082611335565b61162a8185611606565b935061163a81856020860161134f565b61164381611377565b840191505092915050565b6116578161144a565b82525050565b5f606083015f8301518482035f8601526116778282611616565b915050602083015184820360208601526116918282611616565b91505060408301516116a6604086018261164e565b508091505092915050565b5f6116bc838361165d565b905092915050565b5f602082019050919050565b5f6116da826115dd565b6116e481856115e7565b9350836020820285016116f6856115f7565b805f5b85811015611731578484038952815161171285826116b1565b945061171d836116c4565b925060208a019950506001810190506116f9565b50829750879550505050505092915050565b5f6020820190508181035f83015261175b81846116d0565b905092915050565b5f60208284031215611778576117776113e8565b5b5f61178584828501611436565b91505092915050565b5f80fd5b5f80fd5b7f4e487b71000000000000000000000000000000000000000000000000000000005f52604160045260245ffd5b6117cc82611377565b810181811067ffffffffffffffff821117156117eb576117ea611796565b5b80604052505050565b5f6117fd6113df565b905061180982826117c3565b919050565b5f67ffffffffffffffff82111561182857611827611796565b5b61183182611377565b9050602081019050919050565b828183375f83830152505050565b5f61185e6118598461180e565b6117f4565b90508281526020810184848401111561187a57611879611792565b5b61188584828561183e565b509392505050565b5f82601f8301126118a1576118a061178e565b5b81356118b184826020860161184c565b91505092915050565b5f80604083850312156118d0576118cf6113e8565b5b5f83013567ffffffffffffffff8111156118ed576118ec6113ec565b5b6118f98582860161188d565b925050602083013567ffffffffffffffff81111561191a576119196113ec565b5b6119268582860161188d565b9150509250929050565b6119398161140f565b82525050565b5f6020820190506119525f830184611930565b92915050565b5f611962826113f0565b9050919050565b61197281611958565b82525050565b5f60208201905061198b5f830184611969565b92915050565b5f80604083850312156119a7576119a66113e8565b5b5f6119b485828601611469565b92505060206119c585828601611469565b9150509250929050565b5f80604083850312156119e5576119e46113e8565b5b5f6119f285828601611436565b9250506020611a0385828601611436565b9150509250929050565b7f4e487b71000000000000000000000000000000000000000000000000000000005f52602260045260245ffd5b5f6002820490506001821680611a5157607f821691505b602082108103611a6457611a63611a0d565b5b50919050565b5f819050815f5260205f209050919050565b5f6020601f8301049050919050565b5f82821b905092915050565b5f60088302611ac67fffffffffffffffffffffffffffffffffffffffffffffffffffffffffffffffff82611a8b565b611ad08683611a8b565b95508019841693508086168417925050509392505050565b5f819050919050565b5f611b0b611b06611b018461144a565b611ae8565b61144a565b9050919050565b5f819050919050565b611b2483611af1565b611b38611b3082611b12565b848454611a97565b825550505050565b5f90565b611b4c611b40565b611b57818484611b1b565b505050565b5b81811015611b7a57611b6f5f82611b44565b600181019050611b5d565b5050565b601f821115611bbf57611b9081611a6a565b611b9984611a7c565b81016020851015611ba8578190505b611bbc611bb485611a7c565b830182611b5c565b50505b505050565b5f82821c905092915050565b5f611bdf5f1984600802611bc4565b1980831691505092915050565b5f611bf78383611bd0565b9150826002028217905092915050565b611c1082611335565b67ffffffffffffffff811115611c2957611c28611796565b5b611c338254611a3a565b611c3e828285611b7e565b5f60209050601f831160018114611c6f575f8415611c5d578287015190505b611c678582611bec565b865550611cce565b601f198416611c7d86611a6a565b5f5b82811015611ca457848901518255600182019150602085019450602081019050611c7f565b86831015611cc15784890151611cbd601f891682611bd0565b8355505b6001600288020188555050505b505050505050565b7f496e73756666696369656e742062616c616e636520666f7220726577617264005f82015250565b5f611d0a601f8361133f565b9150611d1582611cd6565b602082019050919050565b5f6020820190508181035f830152611d3781611cfe565b9050919050565b7f4e487b71000000000000000000000000000000000000000000000000000000005f52601160045260245ffd5b5f8160011c9050919050565b5f808291508390505b6001851115611dc057808604811115611d9c57611d9b611d3e565b5b6001851615611dab5780820291505b8081029050611db985611d6b565b9450611d80565b94509492505050565b5f82611dd85760019050611e93565b81611de5575f9050611e93565b8160018114611dfb5760028114611e0557611e34565b6001915050611e93565b60ff841115611e1757611e16611d3e565b5b8360020a915084821115611e2e57611e2d611d3e565b5b50611e93565b5060208310610133831016604e8410600b8410161715611e695782820a905083811115611e6457611e63611d3e565b5b611e93565b611e768484846001611d77565b92509050818404811115611e8d57611e8c611d3e565b5b81810290505b9392505050565b5f611ea48261144a565b9150611eaf8361144a565b9250611edc7fffffffffffffffffffffffffffffffffffffffffffffffffffffffffffffffff8484611dc9565b905092915050565b5f611eee8261144a565b9150611ef98361144a565b9250828202611f078161144a565b91508282048414831517611f1e57611f1d611d3e565b5b5092915050565b5f606082019050611f385f830186611930565b611f4560208301856114ee565b611f5260408301846114ee565b949350505050565b5f611f648261144a565b9150611f6f8361144a565b9250828201905080821115611f8757611f86611d3e565b5b9291505056fea2646970667358221220376e61001b80e69aa760fe83263bf7a97f6023a2966667597481244f97d8c46564736f6c63430008140033",
  "linkReferences": {},
  "deployedLinkReferences": {}
}