{
  "_format": "hh-sol-artifact-1",
  "contractName": "Carbon_Foot_print",
  "sourceName": "contracts/carbon_footprint_risk_analysis.sol",
  "abi": [
    {
      "inputs": [],
      "stateMutability": "nonpayable",
      "type": "constructor"
    },
    {
      "inputs": [
        {
          "internalType": "address",
          "name": "spender",
          "type": "address"
        },
        {
          "internalType": "uint256",
          "name": "allowance",
          "type": "uint256"
        },
        {
          "internalType": "uint256",
          "name": "needed",
          "type": "uint256"
        }
      ],
      "name": "ERC20InsufficientAllowance",
      "type": "error"
    },
    {
      "inputs": [
        {
          "internalType": "address",
          "name": "sender",
          "type": "address"
        },
        {
          "internalType": "uint256",
          "name": "balance",
          "type": "uint256"
        },
        {
          "internalType": "uint256",
          "name": "needed",
          "type": "uint256"
        }
      ],
      "name": "ERC20InsufficientBalance",
      "type": "error"
    },
    {
      "inputs": [
        {
          "internalType": "address",
          "name": "approver",
          "type": "address"
        }
      ],
      "name": "ERC20InvalidApprover",
      "type": "error"
    },
    {
      "inputs": [
        {
          "internalType": "address",
          "name": "receiver",
          "type": "address"
        }
      ],
      "name": "ERC20InvalidReceiver",
      "type": "error"
    },
    {
      "inputs": [
        {
          "internalType": "address",
          "name": "sender",
          "type": "address"
        }
      ],
      "name": "ERC20InvalidSender",
      "type": "error"
    },
    {
      "inputs": [
        {
          "internalType": "address",
          "name": "spender",
          "type": "address"
        }
      ],
      "name": "ERC20InvalidSpender",
      "type": "error"
    },
    {
      "inputs": [
        {
          "internalType": "address",
          "name": "owner",
          "type": "address"
        }
      ],
      "name": "OwnableInvalidOwner",
      "type": "error"
    },
    {
      "inputs": [
        {
          "internalType": "address",
          "name": "account",
          "type": "address"
        }
      ],
      "name": "OwnableUnauthorizedAccount",
      "type": "error"
    },
    {
      "anonymous": false,
      "inputs": [
        {
          "indexed": true,
          "internalType": "address",
          "name": "owner",
          "type": "address"
        },
        {
          "indexed": true,
          "internalType": "address",
          "name": "spender",
          "type": "address"
        },
        {
          "indexed": false,
          "internalType": "uint256",
          "name": "value",
          "type": "uint256"
        }
      ],
      "name": "Approval",
      "type": "event"
    },
    {
      "anonymous": false,
      "inputs": [
        {
          "indexed": true,
          "internalType": "address",
          "name": "user",
          "type": "address"
        },
        {
          "indexed": false,
          "internalType": "string",
          "name": "analysisRequest",
          "type": "string"
        },
        {
          "indexed": false,
          "internalType": "string",
          "name": "analysisResult",
          "type": "string"
        },
        {
          "indexed": false,
          "internalType": "uint256",
          "name": "rewardToken",
          "type": "uint256"
        }
      ],
      "name": "DataAdded",
      "type": "event"
    },
    {
      "anonymous": false,
      "inputs": [
        {
          "indexed": true,
          "internalType": "address",
          "name": "previousOwner",
          "type": "address"
        },
        {
          "indexed": true,
          "internalType": "address",
          "name": "newOwner",
          "type": "address"
        }
      ],
      "name": "OwnershipTransferred",
      "type": "event"
    },
    {
      "anonymous": false,
      "inputs": [
        {
          "indexed": true,
          "internalType": "address",
          "name": "from",
          "type": "address"
        },
        {
          "indexed": true,
          "internalType": "address",
          "name": "to",
          "type": "address"
        },
        {
          "indexed": false,
          "internalType": "uint256",
          "name": "value",
          "type": "uint256"
        }
      ],
      "name": "Transfer",
      "type": "event"
    },
    {
      "inputs": [
        {
          "internalType": "string",
          "name": "analysisRequest",
          "type": "string"
        },
        {
          "internalType": "string",
          "name": "analysisResult",
          "type": "string"
        }
      ],
      "name": "addAnalyzedData",
      "outputs": [],
      "stateMutability": "nonpayable",
      "type": "function"
    },
    {
      "inputs": [
        {
          "internalType": "address",
          "name": "owner",
          "type": "address"
        },
        {
          "internalType": "address",
          "name": "spender",
          "type": "address"
        }
      ],
      "name": "allowance",
      "outputs": [
        {
          "internalType": "uint256",
          "name": "",
          "type": "uint256"
        }
      ],
      "stateMutability": "view",
      "type": "function"
    },
    {
      "inputs": [
        {
          "internalType": "address",
          "name": "",
          "type": "address"
        },
        {
          "internalType": "uint256",
          "name": "",
          "type": "uint256"
        }
      ],
      "name": "analyzedData",
      "outputs": [
        {
          "internalType": "string",
          "name": "analysisRequest",
          "type": "string"
        },
        {
          "internalType": "string",
          "name": "analysisResult",
          "type": "string"
        },
        {
          "internalType": "uint256",
          "name": "storedTimestamp",
          "type": "uint256"
        }
      ],
      "stateMutability": "view",
      "type": "function"
    },
    {
      "inputs": [
        {
          "internalType": "address",
          "name": "spender",
          "type": "address"
        },
        {
          "internalType": "uint256",
          "name": "value",
          "type": "uint256"
        }
      ],
      "name": "approve",
      "outputs": [
        {
          "internalType": "bool",
          "name": "",
          "type": "bool"
        }
      ],
      "stateMutability": "nonpayable",
      "type": "function"
    },
    {
      "inputs": [
        {
          "internalType": "address",
          "name": "account",
          "type": "address"
        }
      ],
      "name": "balanceOf",
      "outputs": [
        {
          "internalType": "uint256",
          "name": "",
          "type": "uint256"
        }
      ],
      "stateMutability": "view",
      "type": "function"
    },
    {
      "inputs": [],
      "name": "decimals",
      "outputs": [
        {
          "internalType": "uint8",
          "name": "",
          "type": "uint8"
        }
      ],
      "stateMutability": "view",
      "type": "function"
    },
    {
      "inputs": [],
      "name": "getAllAnalyzedData",
      "outputs": [
        {
          "components": [
            {
              "internalType": "string",
              "name": "analysisRequest",
              "type": "string"
            },
            {
              "internalType": "string",
              "name": "analysisResult",
              "type": "string"
            },
            {
              "internalType": "uint256",
              "name": "storedTimestamp",
              "type": "uint256"
            }
          ],
          "internalType": "struct Carbon_Foot_print.Data[]",
          "name": "",
          "type": "tuple[]"
        }
      ],
      "stateMutability": "view",
      "type": "function"
    },
    {
      "inputs": [
        {
          "internalType": "uint256",
          "name": "amount",
          "type": "uint256"
        },
        {
          "internalType": "uint256",
          "name": "decimal",
          "type": "uint256"
        }
      ],
      "name": "issueToken",
      "outputs": [],
      "stateMutability": "nonpayable",
      "type": "function"
    },
    {
      "inputs": [],
      "name": "name",
      "outputs": [
        {
          "internalType": "string",
          "name": "",
          "type": "string"
        }
      ],
      "stateMutability": "view",
      "type": "function"
    },
    {
      "inputs": [],
      "name": "own",
      "outputs": [
        {
          "internalType": "address payable",
          "name": "",
          "type": "address"
        }
      ],
      "stateMutability": "view",
      "type": "function"
    },
    {
      "inputs": [],
      "name": "owner",
      "outputs": [
        {
          "internalType": "address",
          "name": "",
          "type": "address"
        }
      ],
      "stateMutability": "view",
      "type": "function"
    },
    {
      "inputs": [],
      "name": "renounceOwnership",
      "outputs": [],
      "stateMutability": "nonpayable",
      "type": "function"
    },
    {
      "inputs": [],
      "name": "symbol",
      "outputs": [
        {
          "internalType": "string",
          "name": "",
          "type": "string"
        }
      ],
      "stateMutability": "view",
      "type": "function"
    },
    {
      "inputs": [],
      "name": "totalSupply",
      "outputs": [
        {
          "internalType": "uint256",
          "name": "",
          "type": "uint256"
        }
      ],
      "stateMutability": "view",
      "type": "function"
    },
    {
      "inputs": [
        {
          "internalType": "address",
          "name": "to",
          "type": "address"
        },
        {
          "internalType": "uint256",
          "name": "value",
          "type": "uint256"
        }
      ],
      "name": "transfer",
      "outputs": [
        {
          "internalType": "bool",
          "name": "",
          "type": "bool"
        }
      ],
      "stateMutability": "nonpayable",
      "type": "function"
    },
    {
      "inputs": [
        {
          "internalType": "address payable",
          "name": "recipent",
          "type": "address"
        },
        {
          "internalType": "uint256",
          "name": "amount",
          "type": "uint256"
        }
      ],
      "name": "transferEther",
      "outputs": [],
      "stateMutability": "payable",
      "type": "function"
    },
    {
      "inputs": [
        {
          "internalType": "address",
          "name": "from",
          "type": "address"
        },
        {
          "internalType": "address",
          "name": "to",
          "type": "address"
        },
        {
          "internalType": "uint256",
          "name": "value",
          "type": "uint256"
        }
      ],
      "name": "transferFrom",
      "outputs": [
        {
          "internalType": "bool",
          "name": "",
          "type": "bool"
        }
      ],
      "stateMutability": "nonpayable",
      "type": "function"
    },
    {
      "inputs": [
        {
          "internalType": "address",
          "name": "newOwner",
          "type": "address"
        }
      ],
      "name": "transferOwnership",
      "outputs": [],
      "stateMutability": "nonpayable",
      "type": "function"
    }
  ],
  "bytecode": "0x608060405234801562000010575f80fd5b50336040518060400160405280600f81526020017f436172626f6e20656d697373696f6e00000000000000000000000000000000008152506040518060400160405280600381526020017f434f32000000000000000000000000000000000000000000000000000000000081525081600390816200008f919062000782565b508060049081620000a1919062000782565b5050505f73ffffffffffffffffffffffffffffffffffffffff168173ffffffffffffffffffffffffffffffffffffffff160362000117575f6040517f1e4fbdf70000000000000000000000000000000000000000000000000000000081526004016200010e9190620008a9565b60405180910390fd5b6200012881620001ad60201b60201c565b503360065f6101000a81548173ffffffffffffffffffffffffffffffffffffffff021916908373ffffffffffffffffffffffffffffffffffffffff160217905550620001a760065f9054906101000a900473ffffffffffffffffffffffffffffffffffffffff166a39e7139a8c08fa060000006200027060201b60201c565b62000992565b5f60055f9054906101000a900473ffffffffffffffffffffffffffffffffffffffff1690508160055f6101000a81548173ffffffffffffffffffffffffffffffffffffffff021916908373ffffffffffffffffffffffffffffffffffffffff1602179055508173ffffffffffffffffffffffffffffffffffffffff168173ffffffffffffffffffffffffffffffffffffffff167f8be0079c531659141344cd1fd0a4f28419497f9722a3daafe3b4186f6b6457e060405160405180910390a35050565b5f73ffffffffffffffffffffffffffffffffffffffff168273ffffffffffffffffffffffffffffffffffffffff1603620002e3575f6040517fec442f05000000000000000000000000000000000000000000000000000000008152600401620002da9190620008a9565b60405180910390fd5b620002f65f8383620002fa60201b60201c565b5050565b5f73ffffffffffffffffffffffffffffffffffffffff168373ffffffffffffffffffffffffffffffffffffffff16036200034e578060025f828254620003419190620008f1565b925050819055506200041f565b5f805f8573ffffffffffffffffffffffffffffffffffffffff1673ffffffffffffffffffffffffffffffffffffffff1681526020019081526020015f2054905081811015620003da578381836040517fe450d38c000000000000000000000000000000000000000000000000000000008152600401620003d1939291906200093c565b60405180910390fd5b8181035f808673ffffffffffffffffffffffffffffffffffffffff1673ffffffffffffffffffffffffffffffffffffffff1681526020019081526020015f2081905550505b5f73ffffffffffffffffffffffffffffffffffffffff168273ffffffffffffffffffffffffffffffffffffffff160362000468578060025f8282540392505081905550620004b2565b805f808473ffffffffffffffffffffffffffffffffffffffff1673ffffffffffffffffffffffffffffffffffffffff1681526020019081526020015f205f82825401925050819055505b8173ffffffffffffffffffffffffffffffffffffffff168373ffffffffffffffffffffffffffffffffffffffff167fddf252ad1be2c89b69c2b068fc378daa952ba7f163c4a11628f55a4df523b3ef8360405162000511919062000977565b60405180910390a3505050565b5f81519050919050565b7f4e487b71000000000000000000000000000000000000000000000000000000005f52604160045260245ffd5b7f4e487b71000000000000000000000000000000000000000000000000000000005f52602260045260245ffd5b5f60028204905060018216806200059a57607f821691505b602082108103620005b057620005af62000555565b5b50919050565b5f819050815f5260205f209050919050565b5f6020601f8301049050919050565b5f82821b905092915050565b5f60088302620006147fffffffffffffffffffffffffffffffffffffffffffffffffffffffffffffffff82620005d7565b620006208683620005d7565b95508019841693508086168417925050509392505050565b5f819050919050565b5f819050919050565b5f6200066a620006646200065e8462000638565b62000641565b62000638565b9050919050565b5f819050919050565b62000685836200064a565b6200069d620006948262000671565b848454620005e3565b825550505050565b5f90565b620006b3620006a5565b620006c08184846200067a565b505050565b5b81811015620006e757620006db5f82620006a9565b600181019050620006c6565b5050565b601f82111562000736576200070081620005b6565b6200070b84620005c8565b810160208510156200071b578190505b620007336200072a85620005c8565b830182620006c5565b50505b505050565b5f82821c905092915050565b5f620007585f19846008026200073b565b1980831691505092915050565b5f62000772838362000747565b9150826002028217905092915050565b6200078d826200051e565b67ffffffffffffffff811115620007a957620007a862000528565b5b620007b5825462000582565b620007c2828285620006eb565b5f60209050601f831160018114620007f8575f8415620007e3578287015190505b620007ef858262000765565b8655506200085e565b601f1984166200080886620005b6565b5f5b8281101562000831578489015182556001820191506020850194506020810190506200080a565b868310156200085157848901516200084d601f89168262000747565b8355505b6001600288020188555050505b505050505050565b5f73ffffffffffffffffffffffffffffffffffffffff82169050919050565b5f620008918262000866565b9050919050565b620008a38162000885565b82525050565b5f602082019050620008be5f83018462000898565b92915050565b7f4e487b71000000000000000000000000000000000000000000000000000000005f52601160045260245ffd5b5f620008fd8262000638565b91506200090a8362000638565b9250828201905080821115620009255762000924620008c4565b5b92915050565b620009368162000638565b82525050565b5f606082019050620009515f83018662000898565b6200096060208301856200092b565b6200096f60408301846200092b565b949350505050565b5f6020820190506200098c5f8301846200092b565b92915050565b61215980620009a05f395ff3fe608060405260043610610108575f3560e01c8063715018a61161009457806399cdee0e1161006357806399cdee0e14610354578063a40937181461037e578063a9059cbb146103a6578063dd62ed3e146103e2578063f2fde38b1461041e57610108565b8063715018a6146102c2578063738f49a1146102d85780638da5cb5b1461030057806395d89b411461032a57610108565b806323b872dd116100db57806323b872dd146101b8578063313ce567146101f457806331d016371461021e57806335767e6a1461025c57806370a082311461028657610108565b806305b1137b1461010c57806306fdde0314610128578063095ea7b31461015257806318160ddd1461018e575b5f80fd5b61012660048036038101906101219190611501565b610446565b005b348015610133575f80fd5b5061013c61048e565b60405161014991906115c9565b60405180910390f35b34801561015d575f80fd5b5061017860048036038101906101739190611624565b61051e565b604051610185919061167c565b60405180910390f35b348015610199575f80fd5b506101a2610540565b6040516101af91906116a4565b60405180910390f35b3480156101c3575f80fd5b506101de60048036038101906101d991906116bd565b610549565b6040516101eb919061167c565b60405180910390f35b3480156101ff575f80fd5b50610208610577565b6040516102159190611728565b60405180910390f35b348015610229575f80fd5b50610244600480360381019061023f9190611624565b61057f565b60405161025393929190611741565b60405180910390f35b348015610267575f80fd5b506102706106cb565b60405161027d91906118ea565b60405180910390f35b348015610291575f80fd5b506102ac60048036038101906102a7919061190a565b61088b565b6040516102b991906116a4565b60405180910390f35b3480156102cd575f80fd5b506102d66108d0565b005b3480156102e3575f80fd5b506102fe60048036038101906102f99190611a61565b6108e3565b005b34801561030b575f80fd5b50610314610a66565b6040516103219190611ae6565b60405180910390f35b348015610335575f80fd5b5061033e610a8e565b60405161034b91906115c9565b60405180910390f35b34801561035f575f80fd5b50610368610b1e565b6040516103759190611b0e565b60405180910390f35b348015610389575f80fd5b506103a4600480360381019061039f9190611b27565b610b43565b005b3480156103b1575f80fd5b506103cc60048036038101906103c79190611624565b610b70565b6040516103d9919061167c565b60405180910390f35b3480156103ed575f80fd5b5061040860048036038101906104039190611b65565b610b92565b60405161041591906116a4565b60405180910390f35b348015610429575f80fd5b50610444600480360381019061043f919061190a565b610c14565b005b8173ffffffffffffffffffffffffffffffffffffffff166108fc8290811502906040515f60405180830381858888f19350505050158015610489573d5f803e3d5ffd5b505050565b60606003805461049d90611bd0565b80601f01602080910402602001604051908101604052809291908181526020018280546104c990611bd0565b80156105145780601f106104eb57610100808354040283529160200191610514565b820191905f5260205f20905b8154815290600101906020018083116104f757829003601f168201915b5050505050905090565b5f80610528610c98565b9050610535818585610c9f565b600191505092915050565b5f600254905090565b5f80610553610c98565b9050610560858285610cb1565b61056b858585610d43565b60019150509392505050565b5f6012905090565b6007602052815f5260405f208181548110610598575f80fd5b905f5260205f2090600302015f9150915050805f0180546105b890611bd0565b80601f01602080910402602001604051908101604052809291908181526020018280546105e490611bd0565b801561062f5780601f106106065761010080835404028352916020019161062f565b820191905f5260205f20905b81548152906001019060200180831161061257829003601f168201915b50505050509080600101805461064490611bd0565b80601f016020809104026020016040519081016040528092919081815260200182805461067090611bd0565b80156106bb5780601f10610692576101008083540402835291602001916106bb565b820191905f5260205f20905b81548152906001019060200180831161069e57829003601f168201915b5050505050908060020154905083565b606060075f3373ffffffffffffffffffffffffffffffffffffffff1673ffffffffffffffffffffffffffffffffffffffff1681526020019081526020015f20805480602002602001604051908101604052809291908181526020015f905b82821015610882578382905f5260205f2090600302016040518060600160405290815f8201805461075990611bd0565b80601f016020809104026020016040519081016040528092919081815260200182805461078590611bd0565b80156107d05780601f106107a7576101008083540402835291602001916107d0565b820191905f5260205f20905b8154815290600101906020018083116107b357829003601f168201915b505050505081526020016001820180546107e990611bd0565b80601f016020809104026020016040519081016040528092919081815260200182805461081590611bd0565b80156108605780601f1061083757610100808354040283529160200191610860565b820191905f5260205f20905b81548152906001019060200180831161084357829003601f168201915b5050505050815260200160028201548152505081526020019060010190610729565b50505050905090565b5f805f8373ffffffffffffffffffffffffffffffffffffffff1673ffffffffffffffffffffffffffffffffffffffff1681526020019081526020015f20549050919050565b6108d8610e33565b6108e15f610eba565b565b5f604051806060016040528084815260200183815260200142815250905060075f3373ffffffffffffffffffffffffffffffffffffffff1673ffffffffffffffffffffffffffffffffffffffff1681526020019081526020015f2081908060018154018082558091505060019003905f5260205f2090600302015f909190919091505f820151815f0190816109789190611d9d565b50602082015181600101908161098e9190611d9d565b506040820151816002015550505f6103e89050806109b26109ad610a66565b61088b565b10156109f3576040517f08c379a00000000000000000000000000000000000000000000000000000000081526004016109ea90611eb6565b60405180910390fd5b610a046109fe610a66565b82610f7d565b610a0e3382610446565b3373ffffffffffffffffffffffffffffffffffffffff167fed4e923a3f528137294fb184b1bb3324b2fb0c92fcbc14717a265896362c5194858584604051610a5893929190611741565b60405180910390a250505050565b5f60055f9054906101000a900473ffffffffffffffffffffffffffffffffffffffff16905090565b606060048054610a9d90611bd0565b80601f0160208091040260200160405190810160405280929190818152602001828054610ac990611bd0565b8015610b145780601f10610aeb57610100808354040283529160200191610b14565b820191905f5260205f20905b815481529060010190602001808311610af757829003601f168201915b5050505050905090565b60065f9054906101000a900473ffffffffffffffffffffffffffffffffffffffff1681565b610b4b610e33565b610b6c3382600a610b5c9190612030565b84610b67919061207a565b610ffc565b5050565b5f80610b7a610c98565b9050610b87818585610d43565b600191505092915050565b5f60015f8473ffffffffffffffffffffffffffffffffffffffff1673ffffffffffffffffffffffffffffffffffffffff1681526020019081526020015f205f8373ffffffffffffffffffffffffffffffffffffffff1673ffffffffffffffffffffffffffffffffffffffff1681526020019081526020015f2054905092915050565b610c1c610e33565b5f73ffffffffffffffffffffffffffffffffffffffff168173ffffffffffffffffffffffffffffffffffffffff1603610c8c575f6040517f1e4fbdf7000000000000000000000000000000000000000000000000000000008152600401610c839190611ae6565b60405180910390fd5b610c9581610eba565b50565b5f33905090565b610cac838383600161107b565b505050565b5f610cbc8484610b92565b90507fffffffffffffffffffffffffffffffffffffffffffffffffffffffffffffffff8114610d3d5781811015610d2e578281836040517ffb8f41b2000000000000000000000000000000000000000000000000000000008152600401610d25939291906120bb565b60405180910390fd5b610d3c84848484035f61107b565b5b50505050565b5f73ffffffffffffffffffffffffffffffffffffffff168373ffffffffffffffffffffffffffffffffffffffff1603610db3575f6040517f96c6fd1e000000000000000000000000000000000000000000000000000000008152600401610daa9190611ae6565b60405180910390fd5b5f73ffffffffffffffffffffffffffffffffffffffff168273ffffffffffffffffffffffffffffffffffffffff1603610e23575f6040517fec442f05000000000000000000000000000000000000000000000000000000008152600401610e1a9190611ae6565b60405180910390fd5b610e2e83838361124a565b505050565b610e3b610c98565b73ffffffffffffffffffffffffffffffffffffffff16610e59610a66565b73ffffffffffffffffffffffffffffffffffffffff1614610eb857610e7c610c98565b6040517f118cdaa7000000000000000000000000000000000000000000000000000000008152600401610eaf9190611ae6565b60405180910390fd5b565b5f60055f9054906101000a900473ffffffffffffffffffffffffffffffffffffffff1690508160055f6101000a81548173ffffffffffffffffffffffffffffffffffffffff021916908373ffffffffffffffffffffffffffffffffffffffff1602179055508173ffffffffffffffffffffffffffffffffffffffff168173ffffffffffffffffffffffffffffffffffffffff167f8be0079c531659141344cd1fd0a4f28419497f9722a3daafe3b4186f6b6457e060405160405180910390a35050565b5f73ffffffffffffffffffffffffffffffffffffffff168273ffffffffffffffffffffffffffffffffffffffff1603610fed575f6040517f96c6fd1e000000000000000000000000000000000000000000000000000000008152600401610fe49190611ae6565b60405180910390fd5b610ff8825f8361124a565b5050565b5f73ffffffffffffffffffffffffffffffffffffffff168273ffffffffffffffffffffffffffffffffffffffff160361106c575f6040517fec442f050000000000000000000000000000000000000000000000000000000081526004016110639190611ae6565b60405180910390fd5b6110775f838361124a565b5050565b5f73ffffffffffffffffffffffffffffffffffffffff168473ffffffffffffffffffffffffffffffffffffffff16036110eb575f6040517fe602df050000000000000000000000000000000000000000000000000000000081526004016110e29190611ae6565b60405180910390fd5b5f73ffffffffffffffffffffffffffffffffffffffff168373ffffffffffffffffffffffffffffffffffffffff160361115b575f6040517f94280d620000000000000000000000000000000000000000000000000000000081526004016111529190611ae6565b60405180910390fd5b8160015f8673ffffffffffffffffffffffffffffffffffffffff1673ffffffffffffffffffffffffffffffffffffffff1681526020019081526020015f205f8573ffffffffffffffffffffffffffffffffffffffff1673ffffffffffffffffffffffffffffffffffffffff1681526020019081526020015f20819055508015611244578273ffffffffffffffffffffffffffffffffffffffff168473ffffffffffffffffffffffffffffffffffffffff167f8c5be1e5ebec7d5bd14f71427d1e84f3dd0314c0f7b2291e5b200ac8c7c3b9258460405161123b91906116a4565b60405180910390a35b50505050565b5f73ffffffffffffffffffffffffffffffffffffffff168373ffffffffffffffffffffffffffffffffffffffff160361129a578060025f82825461128e91906120f0565b92505081905550611368565b5f805f8573ffffffffffffffffffffffffffffffffffffffff1673ffffffffffffffffffffffffffffffffffffffff1681526020019081526020015f2054905081811015611323578381836040517fe450d38c00000000000000000000000000000000000000000000000000000000815260040161131a939291906120bb565b60405180910390fd5b8181035f808673ffffffffffffffffffffffffffffffffffffffff1673ffffffffffffffffffffffffffffffffffffffff1681526020019081526020015f2081905550505b5f73ffffffffffffffffffffffffffffffffffffffff168273ffffffffffffffffffffffffffffffffffffffff16036113af578060025f82825403925050819055506113f9565b805f808473ffffffffffffffffffffffffffffffffffffffff1673ffffffffffffffffffffffffffffffffffffffff1681526020019081526020015f205f82825401925050819055505b8173ffffffffffffffffffffffffffffffffffffffff168373ffffffffffffffffffffffffffffffffffffffff167fddf252ad1be2c89b69c2b068fc378daa952ba7f163c4a11628f55a4df523b3ef8360405161145691906116a4565b60405180910390a3505050565b5f604051905090565b5f80fd5b5f80fd5b5f73ffffffffffffffffffffffffffffffffffffffff82169050919050565b5f61149d82611474565b9050919050565b6114ad81611493565b81146114b7575f80fd5b50565b5f813590506114c8816114a4565b92915050565b5f819050919050565b6114e0816114ce565b81146114ea575f80fd5b50565b5f813590506114fb816114d7565b92915050565b5f80604083850312156115175761151661146c565b5b5f611524858286016114ba565b9250506020611535858286016114ed565b9150509250929050565b5f81519050919050565b5f82825260208201905092915050565b5f5b8381101561157657808201518184015260208101905061155b565b5f8484015250505050565b5f601f19601f8301169050919050565b5f61159b8261153f565b6115a58185611549565b93506115b5818560208601611559565b6115be81611581565b840191505092915050565b5f6020820190508181035f8301526115e18184611591565b905092915050565b5f6115f382611474565b9050919050565b611603816115e9565b811461160d575f80fd5b50565b5f8135905061161e816115fa565b92915050565b5f806040838503121561163a5761163961146c565b5b5f61164785828601611610565b9250506020611658858286016114ed565b9150509250929050565b5f8115159050919050565b61167681611662565b82525050565b5f60208201905061168f5f83018461166d565b92915050565b61169e816114ce565b82525050565b5f6020820190506116b75f830184611695565b92915050565b5f805f606084860312156116d4576116d361146c565b5b5f6116e186828701611610565b93505060206116f286828701611610565b9250506040611703868287016114ed565b9150509250925092565b5f60ff82169050919050565b6117228161170d565b82525050565b5f60208201905061173b5f830184611719565b92915050565b5f6060820190508181035f8301526117598186611591565b9050818103602083015261176d8185611591565b905061177c6040830184611695565b949350505050565b5f81519050919050565b5f82825260208201905092915050565b5f819050602082019050919050565b5f82825260208201905092915050565b5f6117c78261153f565b6117d181856117ad565b93506117e1818560208601611559565b6117ea81611581565b840191505092915050565b6117fe816114ce565b82525050565b5f606083015f8301518482035f86015261181e82826117bd565b9150506020830151848203602086015261183882826117bd565b915050604083015161184d60408601826117f5565b508091505092915050565b5f6118638383611804565b905092915050565b5f602082019050919050565b5f61188182611784565b61188b818561178e565b93508360208202850161189d8561179e565b805f5b858110156118d857848403895281516118b98582611858565b94506118c48361186b565b925060208a019950506001810190506118a0565b50829750879550505050505092915050565b5f6020820190508181035f8301526119028184611877565b905092915050565b5f6020828403121561191f5761191e61146c565b5b5f61192c84828501611610565b91505092915050565b5f80fd5b5f80fd5b7f4e487b71000000000000000000000000000000000000000000000000000000005f52604160045260245ffd5b61197382611581565b810181811067ffffffffffffffff821117156119925761199161193d565b5b80604052505050565b5f6119a4611463565b90506119b0828261196a565b919050565b5f67ffffffffffffffff8211156119cf576119ce61193d565b5b6119d882611581565b9050602081019050919050565b828183375f83830152505050565b5f611a05611a00846119b5565b61199b565b905082815260208101848484011115611a2157611a20611939565b5b611a2c8482856119e5565b509392505050565b5f82601f830112611a4857611a47611935565b5b8135611a588482602086016119f3565b91505092915050565b5f8060408385031215611a7757611a7661146c565b5b5f83013567ffffffffffffffff811115611a9457611a93611470565b5b611aa085828601611a34565b925050602083013567ffffffffffffffff811115611ac157611ac0611470565b5b611acd85828601611a34565b9150509250929050565b611ae0816115e9565b82525050565b5f602082019050611af95f830184611ad7565b92915050565b611b0881611493565b82525050565b5f602082019050611b215f830184611aff565b92915050565b5f8060408385031215611b3d57611b3c61146c565b5b5f611b4a858286016114ed565b9250506020611b5b858286016114ed565b9150509250929050565b5f8060408385031215611b7b57611b7a61146c565b5b5f611b8885828601611610565b9250506020611b9985828601611610565b9150509250929050565b7f4e487b71000000000000000000000000000000000000000000000000000000005f52602260045260245ffd5b5f6002820490506001821680611be757607f821691505b602082108103611bfa57611bf9611ba3565b5b50919050565b5f819050815f5260205f209050919050565b5f6020601f8301049050919050565b5f82821b905092915050565b5f60088302611c5c7fffffffffffffffffffffffffffffffffffffffffffffffffffffffffffffffff82611c21565b611c668683611c21565b95508019841693508086168417925050509392505050565b5f819050919050565b5f611ca1611c9c611c97846114ce565b611c7e565b6114ce565b9050919050565b5f819050919050565b611cba83611c87565b611cce611cc682611ca8565b848454611c2d565b825550505050565b5f90565b611ce2611cd6565b611ced818484611cb1565b505050565b5b81811015611d1057611d055f82611cda565b600181019050611cf3565b5050565b601f821115611d5557611d2681611c00565b611d2f84611c12565b81016020851015611d3e578190505b611d52611d4a85611c12565b830182611cf2565b50505b505050565b5f82821c905092915050565b5f611d755f1984600802611d5a565b1980831691505092915050565b5f611d8d8383611d66565b9150826002028217905092915050565b611da68261153f565b67ffffffffffffffff811115611dbf57611dbe61193d565b5b611dc98254611bd0565b611dd4828285611d14565b5f60209050601f831160018114611e05575f8415611df3578287015190505b611dfd8582611d82565b865550611e64565b601f198416611e1386611c00565b5f5b82811015611e3a57848901518255600182019150602085019450602081019050611e15565b86831015611e575784890151611e53601f891682611d66565b8355505b6001600288020188555050505b505050505050565b7f496e73756666696369656e742062616c616e636520666f7220726577617264005f82015250565b5f611ea0601f83611549565b9150611eab82611e6c565b602082019050919050565b5f6020820190508181035f830152611ecd81611e94565b9050919050565b7f4e487b71000000000000000000000000000000000000000000000000000000005f52601160045260245ffd5b5f8160011c9050919050565b5f808291508390505b6001851115611f5657808604811115611f3257611f31611ed4565b5b6001851615611f415780820291505b8081029050611f4f85611f01565b9450611f16565b94509492505050565b5f82611f6e5760019050612029565b81611f7b575f9050612029565b8160018114611f915760028114611f9b57611fca565b6001915050612029565b60ff841115611fad57611fac611ed4565b5b8360020a915084821115611fc457611fc3611ed4565b5b50612029565b5060208310610133831016604e8410600b8410161715611fff5782820a905083811115611ffa57611ff9611ed4565b5b612029565b61200c8484846001611f0d565b9250905081840481111561202357612022611ed4565b5b81810290505b9392505050565b5f61203a826114ce565b9150612045836114ce565b92506120727fffffffffffffffffffffffffffffffffffffffffffffffffffffffffffffffff8484611f5f565b905092915050565b5f612084826114ce565b915061208f836114ce565b925082820261209d816114ce565b915082820484148315176120b4576120b3611ed4565b5b5092915050565b5f6060820190506120ce5f830186611ad7565b6120db6020830185611695565b6120e86040830184611695565b949350505050565b5f6120fa826114ce565b9150612105836114ce565b925082820190508082111561211d5761211c611ed4565b5b9291505056fea26469706673582212208d25adb05bf1a7c9d1c8cd8f32a265c9be995bd306ccff5004aceba21ed1b23364736f6c63430008140033",
  "linkReferences": {},
  "deployedLinkReferences": {}
}