{
  "_format": "hh-sol-artifact-1",
  "contractName": "Carbon_Foot_print",
  "sourceName": "contracts/carbon_footprint_risk_analysis.sol",
  "abi": [
    {
      "inputs": [],
      "stateMutability": "nonpayable",
      "type": "constructor"
    },
    {
      "inputs": [
        {
          "internalType": "address",
          "name": "spender",
          "type": "address"
        },
        {
          "internalType": "uint256",
          "name": "allowance",
          "type": "uint256"
        },
        {
          "internalType": "uint256",
          "name": "needed",
          "type": "uint256"
        }
      ],
      "name": "ERC20InsufficientAllowance",
      "type": "error"
    },
    {
      "inputs": [
        {
          "internalType": "address",
          "name": "sender",
          "type": "address"
        },
        {
          "internalType": "uint256",
          "name": "balance",
          "type": "uint256"
        },
        {
          "internalType": "uint256",
          "name": "needed",
          "type": "uint256"
        }
      ],
      "name": "ERC20InsufficientBalance",
      "type": "error"
    },
    {
      "inputs": [
        {
          "internalType": "address",
          "name": "approver",
          "type": "address"
        }
      ],
      "name": "ERC20InvalidApprover",
      "type": "error"
    },
    {
      "inputs": [
        {
          "internalType": "address",
          "name": "receiver",
          "type": "address"
        }
      ],
      "name": "ERC20InvalidReceiver",
      "type": "error"
    },
    {
      "inputs": [
        {
          "internalType": "address",
          "name": "sender",
          "type": "address"
        }
      ],
      "name": "ERC20InvalidSender",
      "type": "error"
    },
    {
      "inputs": [
        {
          "internalType": "address",
          "name": "spender",
          "type": "address"
        }
      ],
      "name": "ERC20InvalidSpender",
      "type": "error"
    },
    {
      "anonymous": false,
      "inputs": [
        {
          "indexed": true,
          "internalType": "address",
          "name": "owner",
          "type": "address"
        },
        {
          "indexed": true,
          "internalType": "address",
          "name": "spender",
          "type": "address"
        },
        {
          "indexed": false,
          "internalType": "uint256",
          "name": "value",
          "type": "uint256"
        }
      ],
      "name": "Approval",
      "type": "event"
    },
    {
      "anonymous": false,
      "inputs": [
        {
          "indexed": true,
          "internalType": "address",
          "name": "user",
          "type": "address"
        },
        {
          "indexed": false,
          "internalType": "string",
          "name": "analysisRequest",
          "type": "string"
        },
        {
          "indexed": false,
          "internalType": "string",
          "name": "analysisResult",
          "type": "string"
        },
        {
          "indexed": false,
          "internalType": "uint256",
          "name": "rewardToken",
          "type": "uint256"
        }
      ],
      "name": "DataAdded",
      "type": "event"
    },
    {
      "anonymous": false,
      "inputs": [
        {
          "indexed": true,
          "internalType": "address",
          "name": "from",
          "type": "address"
        },
        {
          "indexed": true,
          "internalType": "address",
          "name": "to",
          "type": "address"
        },
        {
          "indexed": false,
          "internalType": "uint256",
          "name": "value",
          "type": "uint256"
        }
      ],
      "name": "Transfer",
      "type": "event"
    },
    {
      "inputs": [
        {
          "internalType": "string",
          "name": "analysisRequest",
          "type": "string"
        },
        {
          "internalType": "string",
          "name": "analysisResult",
          "type": "string"
        }
      ],
      "name": "addAnalyzedData",
      "outputs": [],
      "stateMutability": "nonpayable",
      "type": "function"
    },
    {
      "inputs": [
        {
          "internalType": "address",
          "name": "owner",
          "type": "address"
        },
        {
          "internalType": "address",
          "name": "spender",
          "type": "address"
        }
      ],
      "name": "allowance",
      "outputs": [
        {
          "internalType": "uint256",
          "name": "",
          "type": "uint256"
        }
      ],
      "stateMutability": "view",
      "type": "function"
    },
    {
      "inputs": [
        {
          "internalType": "address",
          "name": "",
          "type": "address"
        },
        {
          "internalType": "uint256",
          "name": "",
          "type": "uint256"
        }
      ],
      "name": "analyzedData",
      "outputs": [
        {
          "internalType": "string",
          "name": "analysisRequest",
          "type": "string"
        },
        {
          "internalType": "string",
          "name": "analysisResult",
          "type": "string"
        },
        {
          "internalType": "uint256",
          "name": "storedTimestamp",
          "type": "uint256"
        }
      ],
      "stateMutability": "view",
      "type": "function"
    },
    {
      "inputs": [
        {
          "internalType": "address",
          "name": "spender",
          "type": "address"
        },
        {
          "internalType": "uint256",
          "name": "value",
          "type": "uint256"
        }
      ],
      "name": "approve",
      "outputs": [
        {
          "internalType": "bool",
          "name": "",
          "type": "bool"
        }
      ],
      "stateMutability": "nonpayable",
      "type": "function"
    },
    {
      "inputs": [
        {
          "internalType": "address",
          "name": "account",
          "type": "address"
        }
      ],
      "name": "balanceOf",
      "outputs": [
        {
          "internalType": "uint256",
          "name": "",
          "type": "uint256"
        }
      ],
      "stateMutability": "view",
      "type": "function"
    },
    {
      "inputs": [],
      "name": "decimals",
      "outputs": [
        {
          "internalType": "uint8",
          "name": "",
          "type": "uint8"
        }
      ],
      "stateMutability": "view",
      "type": "function"
    },
    {
      "inputs": [],
      "name": "getAllAnalyzedData",
      "outputs": [
        {
          "components": [
            {
              "internalType": "string",
              "name": "analysisRequest",
              "type": "string"
            },
            {
              "internalType": "string",
              "name": "analysisResult",
              "type": "string"
            },
            {
              "internalType": "uint256",
              "name": "storedTimestamp",
              "type": "uint256"
            }
          ],
          "internalType": "struct Carbon_Foot_print.Data[]",
          "name": "",
          "type": "tuple[]"
        }
      ],
      "stateMutability": "view",
      "type": "function"
    },
    {
      "inputs": [],
      "name": "name",
      "outputs": [
        {
          "internalType": "string",
          "name": "",
          "type": "string"
        }
      ],
      "stateMutability": "view",
      "type": "function"
    },
    {
      "inputs": [],
      "name": "own",
      "outputs": [
        {
          "internalType": "address payable",
          "name": "",
          "type": "address"
        }
      ],
      "stateMutability": "view",
      "type": "function"
    },
    {
      "inputs": [],
      "name": "symbol",
      "outputs": [
        {
          "internalType": "string",
          "name": "",
          "type": "string"
        }
      ],
      "stateMutability": "view",
      "type": "function"
    },
    {
      "inputs": [],
      "name": "totalSupply",
      "outputs": [
        {
          "internalType": "uint256",
          "name": "",
          "type": "uint256"
        }
      ],
      "stateMutability": "view",
      "type": "function"
    },
    {
      "inputs": [
        {
          "internalType": "address",
          "name": "to",
          "type": "address"
        },
        {
          "internalType": "uint256",
          "name": "value",
          "type": "uint256"
        }
      ],
      "name": "transfer",
      "outputs": [
        {
          "internalType": "bool",
          "name": "",
          "type": "bool"
        }
      ],
      "stateMutability": "nonpayable",
      "type": "function"
    },
    {
      "inputs": [
        {
          "internalType": "address",
          "name": "from",
          "type": "address"
        },
        {
          "internalType": "address",
          "name": "to",
          "type": "address"
        },
        {
          "internalType": "uint256",
          "name": "value",
          "type": "uint256"
        }
      ],
      "name": "transferFrom",
      "outputs": [
        {
          "internalType": "bool",
          "name": "",
          "type": "bool"
        }
      ],
      "stateMutability": "nonpayable",
      "type": "function"
    }
  ],
  "bytecode": "0x608060405234801562000010575f80fd5b506040518060400160405280600f81526020017f436172626f6e20656d697373696f6e00000000000000000000000000000000008152506040518060400160405280600381526020017f434f32000000000000000000000000000000000000000000000000000000000081525081600390816200008e919062000639565b508060049081620000a0919062000639565b5050503360055f6101000a81548173ffffffffffffffffffffffffffffffffffffffff021916908373ffffffffffffffffffffffffffffffffffffffff1602179055506200012160055f9054906101000a900473ffffffffffffffffffffffffffffffffffffffff166a39e7139a8c08fa060000006200012760201b60201c565b62000849565b5f73ffffffffffffffffffffffffffffffffffffffff168273ffffffffffffffffffffffffffffffffffffffff16036200019a575f6040517fec442f0500000000000000000000000000000000000000000000000000000000815260040162000191919062000760565b60405180910390fd5b620001ad5f8383620001b160201b60201c565b5050565b5f73ffffffffffffffffffffffffffffffffffffffff168373ffffffffffffffffffffffffffffffffffffffff160362000205578060025f828254620001f89190620007a8565b92505081905550620002d6565b5f805f8573ffffffffffffffffffffffffffffffffffffffff1673ffffffffffffffffffffffffffffffffffffffff1681526020019081526020015f205490508181101562000291578381836040517fe450d38c0000000000000000000000000000000000000000000000000000000081526004016200028893929190620007f3565b60405180910390fd5b8181035f808673ffffffffffffffffffffffffffffffffffffffff1673ffffffffffffffffffffffffffffffffffffffff1681526020019081526020015f2081905550505b5f73ffffffffffffffffffffffffffffffffffffffff168273ffffffffffffffffffffffffffffffffffffffff16036200031f578060025f828254039250508190555062000369565b805f808473ffffffffffffffffffffffffffffffffffffffff1673ffffffffffffffffffffffffffffffffffffffff1681526020019081526020015f205f82825401925050819055505b8173ffffffffffffffffffffffffffffffffffffffff168373ffffffffffffffffffffffffffffffffffffffff167fddf252ad1be2c89b69c2b068fc378daa952ba7f163c4a11628f55a4df523b3ef83604051620003c891906200082e565b60405180910390a3505050565b5f81519050919050565b7f4e487b71000000000000000000000000000000000000000000000000000000005f52604160045260245ffd5b7f4e487b71000000000000000000000000000000000000000000000000000000005f52602260045260245ffd5b5f60028204905060018216806200045157607f821691505b6020821081036200046757620004666200040c565b5b50919050565b5f819050815f5260205f209050919050565b5f6020601f8301049050919050565b5f82821b905092915050565b5f60088302620004cb7fffffffffffffffffffffffffffffffffffffffffffffffffffffffffffffffff826200048e565b620004d786836200048e565b95508019841693508086168417925050509392505050565b5f819050919050565b5f819050919050565b5f620005216200051b6200051584620004ef565b620004f8565b620004ef565b9050919050565b5f819050919050565b6200053c8362000501565b620005546200054b8262000528565b8484546200049a565b825550505050565b5f90565b6200056a6200055c565b6200057781848462000531565b505050565b5b818110156200059e57620005925f8262000560565b6001810190506200057d565b5050565b601f821115620005ed57620005b7816200046d565b620005c2846200047f565b81016020851015620005d2578190505b620005ea620005e1856200047f565b8301826200057c565b50505b505050565b5f82821c905092915050565b5f6200060f5f1984600802620005f2565b1980831691505092915050565b5f620006298383620005fe565b9150826002028217905092915050565b6200064482620003d5565b67ffffffffffffffff81111562000660576200065f620003df565b5b6200066c825462000439565b62000679828285620005a2565b5f60209050601f831160018114620006af575f84156200069a578287015190505b620006a685826200061c565b86555062000715565b601f198416620006bf866200046d565b5f5b82811015620006e857848901518255600182019150602085019450602081019050620006c1565b8683101562000708578489015162000704601f891682620005fe565b8355505b6001600288020188555050505b505050505050565b5f73ffffffffffffffffffffffffffffffffffffffff82169050919050565b5f62000748826200071d565b9050919050565b6200075a816200073c565b82525050565b5f602082019050620007755f8301846200074f565b92915050565b7f4e487b71000000000000000000000000000000000000000000000000000000005f52601160045260245ffd5b5f620007b482620004ef565b9150620007c183620004ef565b9250828201905080821115620007dc57620007db6200077b565b5b92915050565b620007ed81620004ef565b82525050565b5f606082019050620008085f8301866200074f565b620008176020830185620007e2565b620008266040830184620007e2565b949350505050565b5f602082019050620008435f830184620007e2565b92915050565b6119ba80620008575f395ff3fe608060405234801561000f575f80fd5b50600436106100cd575f3560e01c806335767e6a1161008a57806395d89b411161006457806395d89b411461022757806399cdee0e14610245578063a9059cbb14610263578063dd62ed3e14610293576100cd565b806335767e6a146101bd57806370a08231146101db578063738f49a11461020b576100cd565b806306fdde03146100d1578063095ea7b3146100ef57806318160ddd1461011f57806323b872dd1461013d578063313ce5671461016d57806331d016371461018b575b5f80fd5b6100d96102c3565b6040516100e69190611016565b60405180910390f35b610109600480360381019061010491906110d4565b610353565b604051610116919061112c565b60405180910390f35b610127610375565b6040516101349190611154565b60405180910390f35b6101576004803603810190610152919061116d565b61037e565b604051610164919061112c565b60405180910390f35b6101756103ac565b60405161018291906111d8565b60405180910390f35b6101a560048036038101906101a091906110d4565b6103b4565b6040516101b4939291906111f1565b60405180910390f35b6101c5610500565b6040516101d2919061139a565b60405180910390f35b6101f560048036038101906101f091906113ba565b6106c0565b6040516102029190611154565b60405180910390f35b61022560048036038101906102209190611511565b610705565b005b61022f610823565b60405161023c9190611016565b60405180910390f35b61024d6108b3565b60405161025a91906115a7565b60405180910390f35b61027d600480360381019061027891906110d4565b6108d8565b60405161028a919061112c565b60405180910390f35b6102ad60048036038101906102a891906115c0565b6108fa565b6040516102ba9190611154565b60405180910390f35b6060600380546102d29061162b565b80601f01602080910402602001604051908101604052809291908181526020018280546102fe9061162b565b80156103495780601f1061032057610100808354040283529160200191610349565b820191905f5260205f20905b81548152906001019060200180831161032c57829003601f168201915b5050505050905090565b5f8061035d61097c565b905061036a818585610983565b600191505092915050565b5f600254905090565b5f8061038861097c565b9050610395858285610995565b6103a0858585610a27565b60019150509392505050565b5f6012905090565b6006602052815f5260405f2081815481106103cd575f80fd5b905f5260205f2090600302015f9150915050805f0180546103ed9061162b565b80601f01602080910402602001604051908101604052809291908181526020018280546104199061162b565b80156104645780601f1061043b57610100808354040283529160200191610464565b820191905f5260205f20905b81548152906001019060200180831161044757829003601f168201915b5050505050908060010180546104799061162b565b80601f01602080910402602001604051908101604052809291908181526020018280546104a59061162b565b80156104f05780601f106104c7576101008083540402835291602001916104f0565b820191905f5260205f20905b8154815290600101906020018083116104d357829003601f168201915b5050505050908060020154905083565b606060065f3373ffffffffffffffffffffffffffffffffffffffff1673ffffffffffffffffffffffffffffffffffffffff1681526020019081526020015f20805480602002602001604051908101604052809291908181526020015f905b828210156106b7578382905f5260205f2090600302016040518060600160405290815f8201805461058e9061162b565b80601f01602080910402602001604051908101604052809291908181526020018280546105ba9061162b565b80156106055780601f106105dc57610100808354040283529160200191610605565b820191905f5260205f20905b8154815290600101906020018083116105e857829003601f168201915b5050505050815260200160018201805461061e9061162b565b80601f016020809104026020016040519081016040528092919081815260200182805461064a9061162b565b80156106955780601f1061066c57610100808354040283529160200191610695565b820191905f5260205f20905b81548152906001019060200180831161067857829003601f168201915b505050505081526020016002820154815250508152602001906001019061055e565b50505050905090565b5f805f8373ffffffffffffffffffffffffffffffffffffffff1673ffffffffffffffffffffffffffffffffffffffff1681526020019081526020015f20549050919050565b5f604051806060016040528084815260200183815260200142815250905060065f3373ffffffffffffffffffffffffffffffffffffffff1673ffffffffffffffffffffffffffffffffffffffff1681526020019081526020015f2081908060018154018082558091505060019003905f5260205f2090600302015f909190919091505f820151815f01908161079a91906117f8565b5060208201518160010190816107b091906117f8565b506040820151816002015550505f6103e890506107cb610b17565b3373ffffffffffffffffffffffffffffffffffffffff167fed4e923a3f528137294fb184b1bb3324b2fb0c92fcbc14717a265896362c5194858584604051610815939291906111f1565b60405180910390a250505050565b6060600480546108329061162b565b80601f016020809104026020016040519081016040528092919081815260200182805461085e9061162b565b80156108a95780601f10610880576101008083540402835291602001916108a9565b820191905f5260205f20905b81548152906001019060200180831161088c57829003601f168201915b5050505050905090565b60055f9054906101000a900473ffffffffffffffffffffffffffffffffffffffff1681565b5f806108e261097c565b90506108ef818585610a27565b600191505092915050565b5f60015f8473ffffffffffffffffffffffffffffffffffffffff1673ffffffffffffffffffffffffffffffffffffffff1681526020019081526020015f205f8373ffffffffffffffffffffffffffffffffffffffff1673ffffffffffffffffffffffffffffffffffffffff1681526020019081526020015f2054905092915050565b5f33905090565b6109908383836001610b25565b505050565b5f6109a084846108fa565b90507fffffffffffffffffffffffffffffffffffffffffffffffffffffffffffffffff8114610a215781811015610a12578281836040517ffb8f41b2000000000000000000000000000000000000000000000000000000008152600401610a09939291906118d6565b60405180910390fd5b610a2084848484035f610b25565b5b50505050565b5f73ffffffffffffffffffffffffffffffffffffffff168373ffffffffffffffffffffffffffffffffffffffff1603610a97575f6040517f96c6fd1e000000000000000000000000000000000000000000000000000000008152600401610a8e919061190b565b60405180910390fd5b5f73ffffffffffffffffffffffffffffffffffffffff168273ffffffffffffffffffffffffffffffffffffffff1603610b07575f6040517fec442f05000000000000000000000000000000000000000000000000000000008152600401610afe919061190b565b60405180910390fd5b610b12838383610cf4565b505050565b610b23416103e8610f0d565b565b5f73ffffffffffffffffffffffffffffffffffffffff168473ffffffffffffffffffffffffffffffffffffffff1603610b95575f6040517fe602df05000000000000000000000000000000000000000000000000000000008152600401610b8c919061190b565b60405180910390fd5b5f73ffffffffffffffffffffffffffffffffffffffff168373ffffffffffffffffffffffffffffffffffffffff1603610c05575f6040517f94280d62000000000000000000000000000000000000000000000000000000008152600401610bfc919061190b565b60405180910390fd5b8160015f8673ffffffffffffffffffffffffffffffffffffffff1673ffffffffffffffffffffffffffffffffffffffff1681526020019081526020015f205f8573ffffffffffffffffffffffffffffffffffffffff1673ffffffffffffffffffffffffffffffffffffffff1681526020019081526020015f20819055508015610cee578273ffffffffffffffffffffffffffffffffffffffff168473ffffffffffffffffffffffffffffffffffffffff167f8c5be1e5ebec7d5bd14f71427d1e84f3dd0314c0f7b2291e5b200ac8c7c3b92584604051610ce59190611154565b60405180910390a35b50505050565b5f73ffffffffffffffffffffffffffffffffffffffff168373ffffffffffffffffffffffffffffffffffffffff1603610d44578060025f828254610d389190611951565b92505081905550610e12565b5f805f8573ffffffffffffffffffffffffffffffffffffffff1673ffffffffffffffffffffffffffffffffffffffff1681526020019081526020015f2054905081811015610dcd578381836040517fe450d38c000000000000000000000000000000000000000000000000000000008152600401610dc4939291906118d6565b60405180910390fd5b8181035f808673ffffffffffffffffffffffffffffffffffffffff1673ffffffffffffffffffffffffffffffffffffffff1681526020019081526020015f2081905550505b5f73ffffffffffffffffffffffffffffffffffffffff168273ffffffffffffffffffffffffffffffffffffffff1603610e59578060025f8282540392505081905550610ea3565b805f808473ffffffffffffffffffffffffffffffffffffffff1673ffffffffffffffffffffffffffffffffffffffff1681526020019081526020015f205f82825401925050819055505b8173ffffffffffffffffffffffffffffffffffffffff168373ffffffffffffffffffffffffffffffffffffffff167fddf252ad1be2c89b69c2b068fc378daa952ba7f163c4a11628f55a4df523b3ef83604051610f009190611154565b60405180910390a3505050565b5f73ffffffffffffffffffffffffffffffffffffffff168273ffffffffffffffffffffffffffffffffffffffff1603610f7d575f6040517fec442f05000000000000000000000000000000000000000000000000000000008152600401610f74919061190b565b60405180910390fd5b610f885f8383610cf4565b5050565b5f81519050919050565b5f82825260208201905092915050565b5f5b83811015610fc3578082015181840152602081019050610fa8565b5f8484015250505050565b5f601f19601f8301169050919050565b5f610fe882610f8c565b610ff28185610f96565b9350611002818560208601610fa6565b61100b81610fce565b840191505092915050565b5f6020820190508181035f83015261102e8184610fde565b905092915050565b5f604051905090565b5f80fd5b5f80fd5b5f73ffffffffffffffffffffffffffffffffffffffff82169050919050565b5f61107082611047565b9050919050565b61108081611066565b811461108a575f80fd5b50565b5f8135905061109b81611077565b92915050565b5f819050919050565b6110b3816110a1565b81146110bd575f80fd5b50565b5f813590506110ce816110aa565b92915050565b5f80604083850312156110ea576110e961103f565b5b5f6110f78582860161108d565b9250506020611108858286016110c0565b9150509250929050565b5f8115159050919050565b61112681611112565b82525050565b5f60208201905061113f5f83018461111d565b92915050565b61114e816110a1565b82525050565b5f6020820190506111675f830184611145565b92915050565b5f805f606084860312156111845761118361103f565b5b5f6111918682870161108d565b93505060206111a28682870161108d565b92505060406111b3868287016110c0565b9150509250925092565b5f60ff82169050919050565b6111d2816111bd565b82525050565b5f6020820190506111eb5f8301846111c9565b92915050565b5f6060820190508181035f8301526112098186610fde565b9050818103602083015261121d8185610fde565b905061122c6040830184611145565b949350505050565b5f81519050919050565b5f82825260208201905092915050565b5f819050602082019050919050565b5f82825260208201905092915050565b5f61127782610f8c565b611281818561125d565b9350611291818560208601610fa6565b61129a81610fce565b840191505092915050565b6112ae816110a1565b82525050565b5f606083015f8301518482035f8601526112ce828261126d565b915050602083015184820360208601526112e8828261126d565b91505060408301516112fd60408601826112a5565b508091505092915050565b5f61131383836112b4565b905092915050565b5f602082019050919050565b5f61133182611234565b61133b818561123e565b93508360208202850161134d8561124e565b805f5b8581101561138857848403895281516113698582611308565b94506113748361131b565b925060208a01995050600181019050611350565b50829750879550505050505092915050565b5f6020820190508181035f8301526113b28184611327565b905092915050565b5f602082840312156113cf576113ce61103f565b5b5f6113dc8482850161108d565b91505092915050565b5f80fd5b5f80fd5b7f4e487b71000000000000000000000000000000000000000000000000000000005f52604160045260245ffd5b61142382610fce565b810181811067ffffffffffffffff82111715611442576114416113ed565b5b80604052505050565b5f611454611036565b9050611460828261141a565b919050565b5f67ffffffffffffffff82111561147f5761147e6113ed565b5b61148882610fce565b9050602081019050919050565b828183375f83830152505050565b5f6114b56114b084611465565b61144b565b9050828152602081018484840111156114d1576114d06113e9565b5b6114dc848285611495565b509392505050565b5f82601f8301126114f8576114f76113e5565b5b81356115088482602086016114a3565b91505092915050565b5f80604083850312156115275761152661103f565b5b5f83013567ffffffffffffffff81111561154457611543611043565b5b611550858286016114e4565b925050602083013567ffffffffffffffff81111561157157611570611043565b5b61157d858286016114e4565b9150509250929050565b5f61159182611047565b9050919050565b6115a181611587565b82525050565b5f6020820190506115ba5f830184611598565b92915050565b5f80604083850312156115d6576115d561103f565b5b5f6115e38582860161108d565b92505060206115f48582860161108d565b9150509250929050565b7f4e487b71000000000000000000000000000000000000000000000000000000005f52602260045260245ffd5b5f600282049050600182168061164257607f821691505b602082108103611655576116546115fe565b5b50919050565b5f819050815f5260205f209050919050565b5f6020601f8301049050919050565b5f82821b905092915050565b5f600883026116b77fffffffffffffffffffffffffffffffffffffffffffffffffffffffffffffffff8261167c565b6116c1868361167c565b95508019841693508086168417925050509392505050565b5f819050919050565b5f6116fc6116f76116f2846110a1565b6116d9565b6110a1565b9050919050565b5f819050919050565b611715836116e2565b61172961172182611703565b848454611688565b825550505050565b5f90565b61173d611731565b61174881848461170c565b505050565b5b8181101561176b576117605f82611735565b60018101905061174e565b5050565b601f8211156117b0576117818161165b565b61178a8461166d565b81016020851015611799578190505b6117ad6117a58561166d565b83018261174d565b50505b505050565b5f82821c905092915050565b5f6117d05f19846008026117b5565b1980831691505092915050565b5f6117e883836117c1565b9150826002028217905092915050565b61180182610f8c565b67ffffffffffffffff81111561181a576118196113ed565b5b611824825461162b565b61182f82828561176f565b5f60209050601f831160018114611860575f841561184e578287015190505b61185885826117dd565b8655506118bf565b601f19841661186e8661165b565b5f5b8281101561189557848901518255600182019150602085019450602081019050611870565b868310156118b257848901516118ae601f8916826117c1565b8355505b6001600288020188555050505b505050505050565b6118d081611066565b82525050565b5f6060820190506118e95f8301866118c7565b6118f66020830185611145565b6119036040830184611145565b949350505050565b5f60208201905061191e5f8301846118c7565b92915050565b7f4e487b71000000000000000000000000000000000000000000000000000000005f52601160045260245ffd5b5f61195b826110a1565b9150611966836110a1565b925082820190508082111561197e5761197d611924565b5b9291505056fea264697066735822122027154ae361f377f77845f515fdd8a29b6235bc3280fc087c28ea15c5e4da265064736f6c63430008140033",
  "linkReferences": {},
  "deployedLinkReferences": {}
}