{
  "_format": "hh-sol-artifact-1",
  "contractName": "Carbon_Foot_print",
  "sourceName": "contracts/carbon_footprint_risk_analysis.sol",
  "abi": [
    {
      "inputs": [],
      "stateMutability": "nonpayable",
      "type": "constructor"
    },
    {
      "inputs": [
        {
          "internalType": "address",
          "name": "spender",
          "type": "address"
        },
        {
          "internalType": "uint256",
          "name": "allowance",
          "type": "uint256"
        },
        {
          "internalType": "uint256",
          "name": "needed",
          "type": "uint256"
        }
      ],
      "name": "ERC20InsufficientAllowance",
      "type": "error"
    },
    {
      "inputs": [
        {
          "internalType": "address",
          "name": "sender",
          "type": "address"
        },
        {
          "internalType": "uint256",
          "name": "balance",
          "type": "uint256"
        },
        {
          "internalType": "uint256",
          "name": "needed",
          "type": "uint256"
        }
      ],
      "name": "ERC20InsufficientBalance",
      "type": "error"
    },
    {
      "inputs": [
        {
          "internalType": "address",
          "name": "approver",
          "type": "address"
        }
      ],
      "name": "ERC20InvalidApprover",
      "type": "error"
    },
    {
      "inputs": [
        {
          "internalType": "address",
          "name": "receiver",
          "type": "address"
        }
      ],
      "name": "ERC20InvalidReceiver",
      "type": "error"
    },
    {
      "inputs": [
        {
          "internalType": "address",
          "name": "sender",
          "type": "address"
        }
      ],
      "name": "ERC20InvalidSender",
      "type": "error"
    },
    {
      "inputs": [
        {
          "internalType": "address",
          "name": "spender",
          "type": "address"
        }
      ],
      "name": "ERC20InvalidSpender",
      "type": "error"
    },
    {
      "inputs": [
        {
          "internalType": "address",
          "name": "owner",
          "type": "address"
        }
      ],
      "name": "OwnableInvalidOwner",
      "type": "error"
    },
    {
      "inputs": [
        {
          "internalType": "address",
          "name": "account",
          "type": "address"
        }
      ],
      "name": "OwnableUnauthorizedAccount",
      "type": "error"
    },
    {
      "anonymous": false,
      "inputs": [
        {
          "indexed": true,
          "internalType": "address",
          "name": "owner",
          "type": "address"
        },
        {
          "indexed": true,
          "internalType": "address",
          "name": "spender",
          "type": "address"
        },
        {
          "indexed": false,
          "internalType": "uint256",
          "name": "value",
          "type": "uint256"
        }
      ],
      "name": "Approval",
      "type": "event"
    },
    {
      "anonymous": false,
      "inputs": [
        {
          "indexed": true,
          "internalType": "address",
          "name": "user",
          "type": "address"
        },
        {
          "indexed": false,
          "internalType": "string",
          "name": "analysisRequest",
          "type": "string"
        },
        {
          "indexed": false,
          "internalType": "string",
          "name": "analysisResult",
          "type": "string"
        },
        {
          "indexed": false,
          "internalType": "uint256",
          "name": "rewardToken",
          "type": "uint256"
        }
      ],
      "name": "DataAdded",
      "type": "event"
    },
    {
      "anonymous": false,
      "inputs": [
        {
          "indexed": true,
          "internalType": "address",
          "name": "previousOwner",
          "type": "address"
        },
        {
          "indexed": true,
          "internalType": "address",
          "name": "newOwner",
          "type": "address"
        }
      ],
      "name": "OwnershipTransferred",
      "type": "event"
    },
    {
      "anonymous": false,
      "inputs": [
        {
          "indexed": true,
          "internalType": "address",
          "name": "from",
          "type": "address"
        },
        {
          "indexed": true,
          "internalType": "address",
          "name": "to",
          "type": "address"
        },
        {
          "indexed": false,
          "internalType": "uint256",
          "name": "value",
          "type": "uint256"
        }
      ],
      "name": "Transfer",
      "type": "event"
    },
    {
      "inputs": [
        {
          "internalType": "string",
          "name": "analysisRequest",
          "type": "string"
        },
        {
          "internalType": "string",
          "name": "analysisResult",
          "type": "string"
        }
      ],
      "name": "addAnalyzedData",
      "outputs": [],
      "stateMutability": "nonpayable",
      "type": "function"
    },
    {
      "inputs": [
        {
          "internalType": "address",
          "name": "owner",
          "type": "address"
        },
        {
          "internalType": "address",
          "name": "spender",
          "type": "address"
        }
      ],
      "name": "allowance",
      "outputs": [
        {
          "internalType": "uint256",
          "name": "",
          "type": "uint256"
        }
      ],
      "stateMutability": "view",
      "type": "function"
    },
    {
      "inputs": [
        {
          "internalType": "address",
          "name": "",
          "type": "address"
        },
        {
          "internalType": "uint256",
          "name": "",
          "type": "uint256"
        }
      ],
      "name": "analyzedData",
      "outputs": [
        {
          "internalType": "string",
          "name": "analysisRequest",
          "type": "string"
        },
        {
          "internalType": "string",
          "name": "analysisResult",
          "type": "string"
        },
        {
          "internalType": "uint256",
          "name": "storedTimestamp",
          "type": "uint256"
        }
      ],
      "stateMutability": "view",
      "type": "function"
    },
    {
      "inputs": [
        {
          "internalType": "address",
          "name": "spender",
          "type": "address"
        },
        {
          "internalType": "uint256",
          "name": "value",
          "type": "uint256"
        }
      ],
      "name": "approve",
      "outputs": [
        {
          "internalType": "bool",
          "name": "",
          "type": "bool"
        }
      ],
      "stateMutability": "nonpayable",
      "type": "function"
    },
    {
      "inputs": [
        {
          "internalType": "address",
          "name": "account",
          "type": "address"
        }
      ],
      "name": "balanceOf",
      "outputs": [
        {
          "internalType": "uint256",
          "name": "",
          "type": "uint256"
        }
      ],
      "stateMutability": "view",
      "type": "function"
    },
    {
      "inputs": [],
      "name": "decimals",
      "outputs": [
        {
          "internalType": "uint8",
          "name": "",
          "type": "uint8"
        }
      ],
      "stateMutability": "view",
      "type": "function"
    },
    {
      "inputs": [],
      "name": "getAllAnalyzedData",
      "outputs": [
        {
          "components": [
            {
              "internalType": "string",
              "name": "analysisRequest",
              "type": "string"
            },
            {
              "internalType": "string",
              "name": "analysisResult",
              "type": "string"
            },
            {
              "internalType": "uint256",
              "name": "storedTimestamp",
              "type": "uint256"
            }
          ],
          "internalType": "struct Carbon_Foot_print.Data[]",
          "name": "",
          "type": "tuple[]"
        }
      ],
      "stateMutability": "view",
      "type": "function"
    },
    {
      "inputs": [
        {
          "internalType": "uint256",
          "name": "amount",
          "type": "uint256"
        },
        {
          "internalType": "uint256",
          "name": "decimal",
          "type": "uint256"
        }
      ],
      "name": "issueToken",
      "outputs": [],
      "stateMutability": "nonpayable",
      "type": "function"
    },
    {
      "inputs": [],
      "name": "name",
      "outputs": [
        {
          "internalType": "string",
          "name": "",
          "type": "string"
        }
      ],
      "stateMutability": "view",
      "type": "function"
    },
    {
      "inputs": [],
      "name": "own",
      "outputs": [
        {
          "internalType": "address payable",
          "name": "",
          "type": "address"
        }
      ],
      "stateMutability": "view",
      "type": "function"
    },
    {
      "inputs": [],
      "name": "owner",
      "outputs": [
        {
          "internalType": "address",
          "name": "",
          "type": "address"
        }
      ],
      "stateMutability": "view",
      "type": "function"
    },
    {
      "inputs": [],
      "name": "renounceOwnership",
      "outputs": [],
      "stateMutability": "nonpayable",
      "type": "function"
    },
    {
      "inputs": [],
      "name": "symbol",
      "outputs": [
        {
          "internalType": "string",
          "name": "",
          "type": "string"
        }
      ],
      "stateMutability": "view",
      "type": "function"
    },
    {
      "inputs": [],
      "name": "totalSupply",
      "outputs": [
        {
          "internalType": "uint256",
          "name": "",
          "type": "uint256"
        }
      ],
      "stateMutability": "view",
      "type": "function"
    },
    {
      "inputs": [
        {
          "internalType": "address",
          "name": "to",
          "type": "address"
        },
        {
          "internalType": "uint256",
          "name": "value",
          "type": "uint256"
        }
      ],
      "name": "transfer",
      "outputs": [
        {
          "internalType": "bool",
          "name": "",
          "type": "bool"
        }
      ],
      "stateMutability": "nonpayable",
      "type": "function"
    },
    {
      "inputs": [
        {
          "internalType": "address",
          "name": "from",
          "type": "address"
        },
        {
          "internalType": "address",
          "name": "to",
          "type": "address"
        },
        {
          "internalType": "uint256",
          "name": "value",
          "type": "uint256"
        }
      ],
      "name": "transferFrom",
      "outputs": [
        {
          "internalType": "bool",
          "name": "",
          "type": "bool"
        }
      ],
      "stateMutability": "nonpayable",
      "type": "function"
    },
    {
      "inputs": [
        {
          "internalType": "address",
          "name": "newOwner",
          "type": "address"
        }
      ],
      "name": "transferOwnership",
      "outputs": [],
      "stateMutability": "nonpayable",
      "type": "function"
    }
  ],
  "bytecode": "0x608060405234801562000010575f80fd5b50336040518060400160405280600f81526020017f436172626f6e20656d697373696f6e00000000000000000000000000000000008152506040518060400160405280600381526020017f434f32000000000000000000000000000000000000000000000000000000000081525081600390816200008f919062000782565b508060049081620000a1919062000782565b5050505f73ffffffffffffffffffffffffffffffffffffffff168173ffffffffffffffffffffffffffffffffffffffff160362000117575f6040517f1e4fbdf70000000000000000000000000000000000000000000000000000000081526004016200010e9190620008a9565b60405180910390fd5b6200012881620001ad60201b60201c565b503360065f6101000a81548173ffffffffffffffffffffffffffffffffffffffff021916908373ffffffffffffffffffffffffffffffffffffffff160217905550620001a760065f9054906101000a900473ffffffffffffffffffffffffffffffffffffffff166a39e7139a8c08fa060000006200027060201b60201c565b62000992565b5f60055f9054906101000a900473ffffffffffffffffffffffffffffffffffffffff1690508160055f6101000a81548173ffffffffffffffffffffffffffffffffffffffff021916908373ffffffffffffffffffffffffffffffffffffffff1602179055508173ffffffffffffffffffffffffffffffffffffffff168173ffffffffffffffffffffffffffffffffffffffff167f8be0079c531659141344cd1fd0a4f28419497f9722a3daafe3b4186f6b6457e060405160405180910390a35050565b5f73ffffffffffffffffffffffffffffffffffffffff168273ffffffffffffffffffffffffffffffffffffffff1603620002e3575f6040517fec442f05000000000000000000000000000000000000000000000000000000008152600401620002da9190620008a9565b60405180910390fd5b620002f65f8383620002fa60201b60201c565b5050565b5f73ffffffffffffffffffffffffffffffffffffffff168373ffffffffffffffffffffffffffffffffffffffff16036200034e578060025f828254620003419190620008f1565b925050819055506200041f565b5f805f8573ffffffffffffffffffffffffffffffffffffffff1673ffffffffffffffffffffffffffffffffffffffff1681526020019081526020015f2054905081811015620003da578381836040517fe450d38c000000000000000000000000000000000000000000000000000000008152600401620003d1939291906200093c565b60405180910390fd5b8181035f808673ffffffffffffffffffffffffffffffffffffffff1673ffffffffffffffffffffffffffffffffffffffff1681526020019081526020015f2081905550505b5f73ffffffffffffffffffffffffffffffffffffffff168273ffffffffffffffffffffffffffffffffffffffff160362000468578060025f8282540392505081905550620004b2565b805f808473ffffffffffffffffffffffffffffffffffffffff1673ffffffffffffffffffffffffffffffffffffffff1681526020019081526020015f205f82825401925050819055505b8173ffffffffffffffffffffffffffffffffffffffff168373ffffffffffffffffffffffffffffffffffffffff167fddf252ad1be2c89b69c2b068fc378daa952ba7f163c4a11628f55a4df523b3ef8360405162000511919062000977565b60405180910390a3505050565b5f81519050919050565b7f4e487b71000000000000000000000000000000000000000000000000000000005f52604160045260245ffd5b7f4e487b71000000000000000000000000000000000000000000000000000000005f52602260045260245ffd5b5f60028204905060018216806200059a57607f821691505b602082108103620005b057620005af62000555565b5b50919050565b5f819050815f5260205f209050919050565b5f6020601f8301049050919050565b5f82821b905092915050565b5f60088302620006147fffffffffffffffffffffffffffffffffffffffffffffffffffffffffffffffff82620005d7565b620006208683620005d7565b95508019841693508086168417925050509392505050565b5f819050919050565b5f819050919050565b5f6200066a620006646200065e8462000638565b62000641565b62000638565b9050919050565b5f819050919050565b62000685836200064a565b6200069d620006948262000671565b848454620005e3565b825550505050565b5f90565b620006b3620006a5565b620006c08184846200067a565b505050565b5b81811015620006e757620006db5f82620006a9565b600181019050620006c6565b5050565b601f82111562000736576200070081620005b6565b6200070b84620005c8565b810160208510156200071b578190505b620007336200072a85620005c8565b830182620006c5565b50505b505050565b5f82821c905092915050565b5f620007585f19846008026200073b565b1980831691505092915050565b5f62000772838362000747565b9150826002028217905092915050565b6200078d826200051e565b67ffffffffffffffff811115620007a957620007a862000528565b5b620007b5825462000582565b620007c2828285620006eb565b5f60209050601f831160018114620007f8575f8415620007e3578287015190505b620007ef858262000765565b8655506200085e565b601f1984166200080886620005b6565b5f5b8281101562000831578489015182556001820191506020850194506020810190506200080a565b868310156200085157848901516200084d601f89168262000747565b8355505b6001600288020188555050505b505050505050565b5f73ffffffffffffffffffffffffffffffffffffffff82169050919050565b5f620008918262000866565b9050919050565b620008a38162000885565b82525050565b5f602082019050620008be5f83018462000898565b92915050565b7f4e487b71000000000000000000000000000000000000000000000000000000005f52601160045260245ffd5b5f620008fd8262000638565b91506200090a8362000638565b9250828201905080821115620009255762000924620008c4565b5b92915050565b620009368162000638565b82525050565b5f606082019050620009515f83018662000898565b6200096060208301856200092b565b6200096f60408301846200092b565b949350505050565b5f6020820190506200098c5f8301846200092b565b92915050565b611fcd80620009a05f395ff3fe608060405234801561000f575f80fd5b5060043610610109575f3560e01c8063715018a6116100a057806399cdee0e1161006f57806399cdee0e146102a9578063a4093718146102c7578063a9059cbb146102e3578063dd62ed3e14610313578063f2fde38b1461034357610109565b8063715018a614610247578063738f49a1146102515780638da5cb5b1461026d57806395d89b411461028b57610109565b8063313ce567116100dc578063313ce567146101a957806331d01637146101c757806335767e6a146101f957806370a082311461021757610109565b806306fdde031461010d578063095ea7b31461012b57806318160ddd1461015b57806323b872dd14610179575b5f80fd5b61011561035f565b60405161012291906113c9565b60405180910390f35b61014560048036038101906101409190611487565b6103ef565b60405161015291906114df565b60405180910390f35b610163610411565b6040516101709190611507565b60405180910390f35b610193600480360381019061018e9190611520565b61041a565b6040516101a091906114df565b60405180910390f35b6101b1610448565b6040516101be919061158b565b60405180910390f35b6101e160048036038101906101dc9190611487565b610450565b6040516101f0939291906115a4565b60405180910390f35b61020161059c565b60405161020e919061174d565b60405180910390f35b610231600480360381019061022c919061176d565b61075c565b60405161023e9190611507565b60405180910390f35b61024f6107a1565b005b61026b600480360381019061026691906118c4565b6107b4565b005b610275610935565b6040516102829190611949565b60405180910390f35b61029361095d565b6040516102a091906113c9565b60405180910390f35b6102b16109ed565b6040516102be9190611982565b60405180910390f35b6102e160048036038101906102dc919061199b565b610a12565b005b6102fd60048036038101906102f89190611487565b610a3f565b60405161030a91906114df565b60405180910390f35b61032d600480360381019061032891906119d9565b610a61565b60405161033a9190611507565b60405180910390f35b61035d6004803603810190610358919061176d565b610ae3565b005b60606003805461036e90611a44565b80601f016020809104026020016040519081016040528092919081815260200182805461039a90611a44565b80156103e55780601f106103bc576101008083540402835291602001916103e5565b820191905f5260205f20905b8154815290600101906020018083116103c857829003601f168201915b5050505050905090565b5f806103f9610b67565b9050610406818585610b6e565b600191505092915050565b5f600254905090565b5f80610424610b67565b9050610431858285610b80565b61043c858585610c12565b60019150509392505050565b5f6012905090565b6007602052815f5260405f208181548110610469575f80fd5b905f5260205f2090600302015f9150915050805f01805461048990611a44565b80601f01602080910402602001604051908101604052809291908181526020018280546104b590611a44565b80156105005780601f106104d757610100808354040283529160200191610500565b820191905f5260205f20905b8154815290600101906020018083116104e357829003601f168201915b50505050509080600101805461051590611a44565b80601f016020809104026020016040519081016040528092919081815260200182805461054190611a44565b801561058c5780601f106105635761010080835404028352916020019161058c565b820191905f5260205f20905b81548152906001019060200180831161056f57829003601f168201915b5050505050908060020154905083565b606060075f3373ffffffffffffffffffffffffffffffffffffffff1673ffffffffffffffffffffffffffffffffffffffff1681526020019081526020015f20805480602002602001604051908101604052809291908181526020015f905b82821015610753578382905f5260205f2090600302016040518060600160405290815f8201805461062a90611a44565b80601f016020809104026020016040519081016040528092919081815260200182805461065690611a44565b80156106a15780601f10610678576101008083540402835291602001916106a1565b820191905f5260205f20905b81548152906001019060200180831161068457829003601f168201915b505050505081526020016001820180546106ba90611a44565b80601f01602080910402602001604051908101604052809291908181526020018280546106e690611a44565b80156107315780601f1061070857610100808354040283529160200191610731565b820191905f5260205f20905b81548152906001019060200180831161071457829003601f168201915b50505050508152602001600282015481525050815260200190600101906105fa565b50505050905090565b5f805f8373ffffffffffffffffffffffffffffffffffffffff1673ffffffffffffffffffffffffffffffffffffffff1681526020019081526020015f20549050919050565b6107a9610d02565b6107b25f610d89565b565b5f604051806060016040528084815260200183815260200142815250905060075f3373ffffffffffffffffffffffffffffffffffffffff1673ffffffffffffffffffffffffffffffffffffffff1681526020019081526020015f2081908060018154018082558091505060019003905f5260205f2090600302015f909190919091505f820151815f0190816108499190611c11565b50602082015181600101908161085f9190611c11565b506040820151816002015550505f6103e890508061088361087e610935565b61075c565b10156108c4576040517f08c379a00000000000000000000000000000000000000000000000000000000081526004016108bb90611d2a565b60405180910390fd5b6108cc610e4c565b6108dd6108d7610935565b82610e59565b3373ffffffffffffffffffffffffffffffffffffffff167fed4e923a3f528137294fb184b1bb3324b2fb0c92fcbc14717a265896362c5194858584604051610927939291906115a4565b60405180910390a250505050565b5f60055f9054906101000a900473ffffffffffffffffffffffffffffffffffffffff16905090565b60606004805461096c90611a44565b80601f016020809104026020016040519081016040528092919081815260200182805461099890611a44565b80156109e35780601f106109ba576101008083540402835291602001916109e3565b820191905f5260205f20905b8154815290600101906020018083116109c657829003601f168201915b5050505050905090565b60065f9054906101000a900473ffffffffffffffffffffffffffffffffffffffff1681565b610a1a610d02565b610a3b3382600a610a2b9190611ea4565b84610a369190611eee565b610ed8565b5050565b5f80610a49610b67565b9050610a56818585610c12565b600191505092915050565b5f60015f8473ffffffffffffffffffffffffffffffffffffffff1673ffffffffffffffffffffffffffffffffffffffff1681526020019081526020015f205f8373ffffffffffffffffffffffffffffffffffffffff1673ffffffffffffffffffffffffffffffffffffffff1681526020019081526020015f2054905092915050565b610aeb610d02565b5f73ffffffffffffffffffffffffffffffffffffffff168173ffffffffffffffffffffffffffffffffffffffff1603610b5b575f6040517f1e4fbdf7000000000000000000000000000000000000000000000000000000008152600401610b529190611949565b60405180910390fd5b610b6481610d89565b50565b5f33905090565b610b7b8383836001610f57565b505050565b5f610b8b8484610a61565b90507fffffffffffffffffffffffffffffffffffffffffffffffffffffffffffffffff8114610c0c5781811015610bfd578281836040517ffb8f41b2000000000000000000000000000000000000000000000000000000008152600401610bf493929190611f2f565b60405180910390fd5b610c0b84848484035f610f57565b5b50505050565b5f73ffffffffffffffffffffffffffffffffffffffff168373ffffffffffffffffffffffffffffffffffffffff1603610c82575f6040517f96c6fd1e000000000000000000000000000000000000000000000000000000008152600401610c799190611949565b60405180910390fd5b5f73ffffffffffffffffffffffffffffffffffffffff168273ffffffffffffffffffffffffffffffffffffffff1603610cf2575f6040517fec442f05000000000000000000000000000000000000000000000000000000008152600401610ce99190611949565b60405180910390fd5b610cfd838383611126565b505050565b610d0a610b67565b73ffffffffffffffffffffffffffffffffffffffff16610d28610935565b73ffffffffffffffffffffffffffffffffffffffff1614610d8757610d4b610b67565b6040517f118cdaa7000000000000000000000000000000000000000000000000000000008152600401610d7e9190611949565b60405180910390fd5b565b5f60055f9054906101000a900473ffffffffffffffffffffffffffffffffffffffff1690508160055f6101000a81548173ffffffffffffffffffffffffffffffffffffffff021916908373ffffffffffffffffffffffffffffffffffffffff1602179055508173ffffffffffffffffffffffffffffffffffffffff168173ffffffffffffffffffffffffffffffffffffffff167f8be0079c531659141344cd1fd0a4f28419497f9722a3daafe3b4186f6b6457e060405160405180910390a35050565b610e57336064610ed8565b565b5f73ffffffffffffffffffffffffffffffffffffffff168273ffffffffffffffffffffffffffffffffffffffff1603610ec9575f6040517f96c6fd1e000000000000000000000000000000000000000000000000000000008152600401610ec09190611949565b60405180910390fd5b610ed4825f83611126565b5050565b5f73ffffffffffffffffffffffffffffffffffffffff168273ffffffffffffffffffffffffffffffffffffffff1603610f48575f6040517fec442f05000000000000000000000000000000000000000000000000000000008152600401610f3f9190611949565b60405180910390fd5b610f535f8383611126565b5050565b5f73ffffffffffffffffffffffffffffffffffffffff168473ffffffffffffffffffffffffffffffffffffffff1603610fc7575f6040517fe602df05000000000000000000000000000000000000000000000000000000008152600401610fbe9190611949565b60405180910390fd5b5f73ffffffffffffffffffffffffffffffffffffffff168373ffffffffffffffffffffffffffffffffffffffff1603611037575f6040517f94280d6200000000000000000000000000000000000000000000000000000000815260040161102e9190611949565b60405180910390fd5b8160015f8673ffffffffffffffffffffffffffffffffffffffff1673ffffffffffffffffffffffffffffffffffffffff1681526020019081526020015f205f8573ffffffffffffffffffffffffffffffffffffffff1673ffffffffffffffffffffffffffffffffffffffff1681526020019081526020015f20819055508015611120578273ffffffffffffffffffffffffffffffffffffffff168473ffffffffffffffffffffffffffffffffffffffff167f8c5be1e5ebec7d5bd14f71427d1e84f3dd0314c0f7b2291e5b200ac8c7c3b925846040516111179190611507565b60405180910390a35b50505050565b5f73ffffffffffffffffffffffffffffffffffffffff168373ffffffffffffffffffffffffffffffffffffffff1603611176578060025f82825461116a9190611f64565b92505081905550611244565b5f805f8573ffffffffffffffffffffffffffffffffffffffff1673ffffffffffffffffffffffffffffffffffffffff1681526020019081526020015f20549050818110156111ff578381836040517fe450d38c0000000000000000000000000000000000000000000000000000000081526004016111f693929190611f2f565b60405180910390fd5b8181035f808673ffffffffffffffffffffffffffffffffffffffff1673ffffffffffffffffffffffffffffffffffffffff1681526020019081526020015f2081905550505b5f73ffffffffffffffffffffffffffffffffffffffff168273ffffffffffffffffffffffffffffffffffffffff160361128b578060025f82825403925050819055506112d5565b805f808473ffffffffffffffffffffffffffffffffffffffff1673ffffffffffffffffffffffffffffffffffffffff1681526020019081526020015f205f82825401925050819055505b8173ffffffffffffffffffffffffffffffffffffffff168373ffffffffffffffffffffffffffffffffffffffff167fddf252ad1be2c89b69c2b068fc378daa952ba7f163c4a11628f55a4df523b3ef836040516113329190611507565b60405180910390a3505050565b5f81519050919050565b5f82825260208201905092915050565b5f5b8381101561137657808201518184015260208101905061135b565b5f8484015250505050565b5f601f19601f8301169050919050565b5f61139b8261133f565b6113a58185611349565b93506113b5818560208601611359565b6113be81611381565b840191505092915050565b5f6020820190508181035f8301526113e18184611391565b905092915050565b5f604051905090565b5f80fd5b5f80fd5b5f73ffffffffffffffffffffffffffffffffffffffff82169050919050565b5f611423826113fa565b9050919050565b61143381611419565b811461143d575f80fd5b50565b5f8135905061144e8161142a565b92915050565b5f819050919050565b61146681611454565b8114611470575f80fd5b50565b5f813590506114818161145d565b92915050565b5f806040838503121561149d5761149c6113f2565b5b5f6114aa85828601611440565b92505060206114bb85828601611473565b9150509250929050565b5f8115159050919050565b6114d9816114c5565b82525050565b5f6020820190506114f25f8301846114d0565b92915050565b61150181611454565b82525050565b5f60208201905061151a5f8301846114f8565b92915050565b5f805f60608486031215611537576115366113f2565b5b5f61154486828701611440565b935050602061155586828701611440565b925050604061156686828701611473565b9150509250925092565b5f60ff82169050919050565b61158581611570565b82525050565b5f60208201905061159e5f83018461157c565b92915050565b5f6060820190508181035f8301526115bc8186611391565b905081810360208301526115d08185611391565b90506115df60408301846114f8565b949350505050565b5f81519050919050565b5f82825260208201905092915050565b5f819050602082019050919050565b5f82825260208201905092915050565b5f61162a8261133f565b6116348185611610565b9350611644818560208601611359565b61164d81611381565b840191505092915050565b61166181611454565b82525050565b5f606083015f8301518482035f8601526116818282611620565b9150506020830151848203602086015261169b8282611620565b91505060408301516116b06040860182611658565b508091505092915050565b5f6116c68383611667565b905092915050565b5f602082019050919050565b5f6116e4826115e7565b6116ee81856115f1565b93508360208202850161170085611601565b805f5b8581101561173b578484038952815161171c85826116bb565b9450611727836116ce565b925060208a01995050600181019050611703565b50829750879550505050505092915050565b5f6020820190508181035f83015261176581846116da565b905092915050565b5f60208284031215611782576117816113f2565b5b5f61178f84828501611440565b91505092915050565b5f80fd5b5f80fd5b7f4e487b71000000000000000000000000000000000000000000000000000000005f52604160045260245ffd5b6117d682611381565b810181811067ffffffffffffffff821117156117f5576117f46117a0565b5b80604052505050565b5f6118076113e9565b905061181382826117cd565b919050565b5f67ffffffffffffffff821115611832576118316117a0565b5b61183b82611381565b9050602081019050919050565b828183375f83830152505050565b5f61186861186384611818565b6117fe565b9050828152602081018484840111156118845761188361179c565b5b61188f848285611848565b509392505050565b5f82601f8301126118ab576118aa611798565b5b81356118bb848260208601611856565b91505092915050565b5f80604083850312156118da576118d96113f2565b5b5f83013567ffffffffffffffff8111156118f7576118f66113f6565b5b61190385828601611897565b925050602083013567ffffffffffffffff811115611924576119236113f6565b5b61193085828601611897565b9150509250929050565b61194381611419565b82525050565b5f60208201905061195c5f83018461193a565b92915050565b5f61196c826113fa565b9050919050565b61197c81611962565b82525050565b5f6020820190506119955f830184611973565b92915050565b5f80604083850312156119b1576119b06113f2565b5b5f6119be85828601611473565b92505060206119cf85828601611473565b9150509250929050565b5f80604083850312156119ef576119ee6113f2565b5b5f6119fc85828601611440565b9250506020611a0d85828601611440565b9150509250929050565b7f4e487b71000000000000000000000000000000000000000000000000000000005f52602260045260245ffd5b5f6002820490506001821680611a5b57607f821691505b602082108103611a6e57611a6d611a17565b5b50919050565b5f819050815f5260205f209050919050565b5f6020601f8301049050919050565b5f82821b905092915050565b5f60088302611ad07fffffffffffffffffffffffffffffffffffffffffffffffffffffffffffffffff82611a95565b611ada8683611a95565b95508019841693508086168417925050509392505050565b5f819050919050565b5f611b15611b10611b0b84611454565b611af2565b611454565b9050919050565b5f819050919050565b611b2e83611afb565b611b42611b3a82611b1c565b848454611aa1565b825550505050565b5f90565b611b56611b4a565b611b61818484611b25565b505050565b5b81811015611b8457611b795f82611b4e565b600181019050611b67565b5050565b601f821115611bc957611b9a81611a74565b611ba384611a86565b81016020851015611bb2578190505b611bc6611bbe85611a86565b830182611b66565b50505b505050565b5f82821c905092915050565b5f611be95f1984600802611bce565b1980831691505092915050565b5f611c018383611bda565b9150826002028217905092915050565b611c1a8261133f565b67ffffffffffffffff811115611c3357611c326117a0565b5b611c3d8254611a44565b611c48828285611b88565b5f60209050601f831160018114611c79575f8415611c67578287015190505b611c718582611bf6565b865550611cd8565b601f198416611c8786611a74565b5f5b82811015611cae57848901518255600182019150602085019450602081019050611c89565b86831015611ccb5784890151611cc7601f891682611bda565b8355505b6001600288020188555050505b505050505050565b7f496e73756666696369656e742062616c616e636520666f7220726577617264005f82015250565b5f611d14601f83611349565b9150611d1f82611ce0565b602082019050919050565b5f6020820190508181035f830152611d4181611d08565b9050919050565b7f4e487b71000000000000000000000000000000000000000000000000000000005f52601160045260245ffd5b5f8160011c9050919050565b5f808291508390505b6001851115611dca57808604811115611da657611da5611d48565b5b6001851615611db55780820291505b8081029050611dc385611d75565b9450611d8a565b94509492505050565b5f82611de25760019050611e9d565b81611def575f9050611e9d565b8160018114611e055760028114611e0f57611e3e565b6001915050611e9d565b60ff841115611e2157611e20611d48565b5b8360020a915084821115611e3857611e37611d48565b5b50611e9d565b5060208310610133831016604e8410600b8410161715611e735782820a905083811115611e6e57611e6d611d48565b5b611e9d565b611e808484846001611d81565b92509050818404811115611e9757611e96611d48565b5b81810290505b9392505050565b5f611eae82611454565b9150611eb983611454565b9250611ee67fffffffffffffffffffffffffffffffffffffffffffffffffffffffffffffffff8484611dd3565b905092915050565b5f611ef882611454565b9150611f0383611454565b9250828202611f1181611454565b91508282048414831517611f2857611f27611d48565b5b5092915050565b5f606082019050611f425f83018661193a565b611f4f60208301856114f8565b611f5c60408301846114f8565b949350505050565b5f611f6e82611454565b9150611f7983611454565b9250828201905080821115611f9157611f90611d48565b5b9291505056fea2646970667358221220d6e5b3f769b290aca1eca4218c30210dfdb1362d7fb3d923e574959afd15fd7664736f6c63430008140033",
  "linkReferences": {},
  "deployedLinkReferences": {}
}